:100000000C942A000C9447000C9447000C94470071
:100010000C9447000C9447000C9447000C94AA1CC5
:100020000C9447000C9447000C94BE070C94910765
:100030000C9447000C9447000C9447000C94470024
:100040000C9447000C9447000C9447000C94470014
:100050000C94470011241FBECFE5D8E0DEBFCDBF12
:1000600010E0A0E6B0E0E2E0F6E502C005900D92F7
:10007000AA3AB107D9F715E0AAEAB0E001C01D928B
:10008000A535B107E1F70E94112A0C94FF2A0C94C0
:100090000000EF92FF920F931F937B018C0120E0F1
:1000A00030E040E05FE40E94490388238CF0C801FF
:1000B000B70120E030E040E05FE40E94C1010E940F
:1000C000A9039B01AC01205030404040504806C07D
:1000D000C801B7010E94A9039B01AC01B901CA0183
:1000E0001F910F91FF90EF900895A0E0B0E0EBE733
:1000F000F0E00C94642ADC012B01FA019C9192300F
:1001000008F439C1EB018881823008F433C194309E
:1001100069F4843009F02FC111969C91119789815F
:10012000981709F428C1A7E7B0E025C1843009F485
:1001300021C18230A9F4923009F01DC19A01AD01AC
:1001400088E0EA010990AE01E90109929E0181501F
:10015000C1F7E201898111969C918923818308C1AD
:10016000923009F407C112962D903C901397EB0141
:100170008A819B811496AD90BD90CD90DC901797AD
:10018000EC80FD800E811F819101281B390BB90184
:1001900037FF04C066277727621B730B6032710537
:1001A0000CF061C0121613066CF537014801062EDB
:1001B00004C096948794779467940A94D2F721E0C8
:1001C00030E040E050E004C0220F331F441F551FB1
:1001D0006A95D2F721503040404050402E213F21B7
:1001E00040235123211531054105510521F021E01E
:1001F00030E040E050E079018A01E628F72808293C
:1002000019293CC0232BD1F1260E371E350146019A
:10021000062E04C096948794779467940A94D2F734
:1002200021E030E040E050E004C0220F331F441FC3
:10023000551F6A95D2F721503040404050402A2146
:100240003B214C215D21211531054105510521F04E
:1002500021E030E040E050E059016A01A628B728CB
:10026000C828D9280BC0821593052CF01C01AA249C
:10027000BB24650103C0EE24FF24870111969C91E5
:10028000D20111968C91981709F445C0992339F041
:10029000A80197012A193B094C095D0906C0A6016E
:1002A00095012E193F09400B510B57FD08C01182D3
:1002B0003382228224833583468357831DC081E0A5
:1002C00081833382228288279927DC01821B930B4A
:1002D000A40BB50B84839583A683B7830DC0220F2F
:1002E000331F441F551F24833583468357838281E0
:1002F000938101979383828324813581468157813D
:10030000DA01C9010197A109B1098F5F9F4FAF4F72
:10031000BF4328F30BC0918333822282EA0CFB1C7B
:100320000C1D1D1DE482F5820683178383E0808304
:10033000248135814681578157FF1AC0C901AA27F8
:1003400097FDA095BA2F81709070A070B0705695EF
:10035000479537952795822B932BA42BB52B848318
:100360009583A683B7838281938101969383828349
:10037000DF0101C0D201CD01CDB7DEB7E2E10C94BF
:10038000802AA0E2B0E0E7ECF1E00C94702A6983E7
:100390007A838B839C832D833E834F835887E9E048
:1003A000EE2EF12CEC0EFD1ECE010196B7010E943F
:1003B000D2048E010F5E1F4FCE010596B8010E9438
:1003C000D2048A8991E089278A8BC701B801AE01DE
:1003D000475E5F4F0E9475000E94FD03A096E6E015
:1003E0000C948C2AA0E2B0E0E8EFF1E00C94702AC3
:1003F00069837A838B839C832D833E834F835887C5
:10040000F9E0EF2EF12CEC0EFD1ECE010196B701A6
:100410000E94D2048E010F5E1F4FCE010596B801D7
:100420000E94D204C701B801AE01475E5F4F0E942F
:1004300075000E94FD03A096E6E00C948C2AA0E2D1
:10044000B0E0E5E2F2E00C94642A69837A838B835E
:100450009C832D833E834F835887CE010196BE0136
:10046000675F7F4F0E94D204CE010596BE016F5E8A
:100470007F4F0E94D2049985923088F0898982301A
:10048000C8F0943019F4823051F404C0843029F457
:10049000923081F487E790E0C6C0923049F420E0C2
:1004A0009A858A89981321E02A87CE010996BBC0D4
:1004B000823049F420E09A858A89981321E02A8BBA
:1004C000CE014196B0C02D843E844F8458886D88FB
:1004D0007E888F88988CEE24FF248701AA24BB2471
:1004E000650140E050E060E070E0E0E0F0E0C10174
:1004F00081709070892BE9F0E60CF71C081D191D1E
:100500009A01AB012A0D3B1D4C1D5D1D80E090E062
:10051000A0E0B0E0E614F7040805190520F481E036
:1005200090E0A0E0B0E0BA01A901480F591F6A1F8E
:100530007B1FAA0CBB1CCC1CDD1C97FE08C081E0F5
:1005400090E0A0E0B0E0A82AB92ACA2ADB2A3196B6
:10055000E032F10549F0660C771C881C991C569412
:10056000479437942794C3CFFA85EA892B893C892D
:100570008B859C85280F391F2E5F3F4F17C0CA01FE
:1005800081709070892B61F016950795F794E79428
:1005900080E090E0A0E0B0E8E82AF92A0A2B1B2BC3
:1005A00076956795579547952F5F3F4F77FDE7CF36
:1005B0000CC0440F551F661F771F17FD4160EE0CDE
:1005C000FF1C001F111F21503040403090E05907A0
:1005D00090E0690790E4790760F32B8F3C8FDB0193
:1005E000CA018F779070A070B07080349105A1051A
:1005F000B10561F447FD0AC0E114F10401051105DC
:1006000029F0405C5F4F6F4F7F4F40781A8EFE1786
:1006100011F081E08A8F4D8F5E8F6F8F78A383E01A
:10062000898FCE0149960E94FD03A096E2E10C94C9
:10063000802AA8E1B0E0EFE1F3E00C94702A69832E
:100640007A838B839C832D833E834F83588789E0F5
:10065000E82EF12CEC0EFD1ECE010196B7010E9492
:10066000D2048E010F5E1F4FCE010596B8010E9485
:10067000D2048985823040F08989823028F0C70110
:10068000B8010E944A0501C08FEF6896E6E00C941D
:100690008C2AA8E1B0E0EFE4F3E00C94702A6983BF
:1006A0007A838B839C832D833E834F83588789E095
:1006B000E82EF12CEC0EFD1ECE010196B7010E9432
:1006C000D2048E010F5E1F4FCE010596B8010E9425
:1006D000D2048985823040F08989823028F0C701B0
:1006E000B8010E944A0501C08FEF6896E6E00C94BD
:1006F0008C2AA8E1B0E0EFE7F3E00C94702A69835C
:100700007A838B839C832D833E834F83588789E034
:10071000E82EF12CEC0EFD1ECE010196B7010E94D1
:10072000D2048E010F5E1F4FCE010596B8010E94C4
:10073000D2048985823040F08989823028F0C7014F
:10074000B8010E944A0501C081E06896E6E00C9479
:100750008C2AACE0B0E0EFEAF3E00C94742A6983F1
:100760007A838B839C83CE010196BE016B5F7F4FA2
:100770000E94D2048D81823061F1823050F1843048
:1007800021F48E81882351F12EC02F81388537FDC9
:1007900020C06E812F3131051CF06623F9F023C093
:1007A0008EE190E0821B930B29853A854B855C8511
:1007B00004C056954795379527958A95D2F76623B5
:1007C000B1F050954095309521953F4F4F4F5F4F79
:1007D0000EC020E030E040E050E009C02FEF3FEFD6
:1007E0004FEF5FE704C020E030E040E050E8B9019F
:1007F000CA012C96E2E00C94902ADF92EF92FF92CD
:100800000F931F93FC01E480F58006811781D1804E
:100810008081823048F480E090E0A0E1B0E0E82AF6
:10082000F92A0A2B1B2BA5C0843009F49FC0823003
:1008300021F4EE24FF24870105C0E114F104010531
:10084000110519F4E0E0F0E096C0628173819FEF3A
:10085000623879070CF05BC022E83FEF261B370BAC
:100860002A3131052CF020E030E040E050E02AC091
:10087000B801A701022E04C0769567955795479554
:100880000A94D2F781E090E0A0E0B0E004C0880FC5
:10089000991FAA1FBB1F2A95D2F70197A109B10979
:1008A0008E219F21A023B1230097A105B10521F03E
:1008B00081E090E0A0E0B0E09A01AB01282B392B59
:1008C0004A2B5B2BDA01C9018F779070A070B07052
:1008D00080349105A105B10539F427FF09C0205CDA
:1008E0003F4F4F4F5F4F04C0215C3F4F4F4F5F4F13
:1008F000E0E0F0E02030A0E03A07A0E04A07A0E402
:100900005A0710F0E1E0F0E079018A0127C0603871
:10091000710564F5FB01E158FF4FD801C7018F77DE
:100920009070A070B07080349105A105B10539F4C4
:10093000E7FE0DC080E490E0A0E0B0E004C08FE3EB
:1009400090E0A0E0B0E0E80EF91E0A1F1B1F17FFA1
:1009500005C016950795F794E794319687E01695AC
:100960000795F794E7948A95D1F705C0EE24FF2404
:100970008701EFEFF0E06E2F679566276795902F60
:100980009F77D794DD24D7948E2F8695492F462BB9
:10099000582F5D29B701CA011F910F91FF90EF9069
:1009A000DF900895FC01DB01408151812281622F9B
:1009B0006F7770E0221F2227221F9381892F880FD3
:1009C000822B282F30E0991F9927991F11969C930D
:1009D000119721153105A9F54115510561057105DD
:1009E00011F482E037C082E89FEF13969C938E93B8
:1009F00012979A01AB0167E0220F331F441F551F66
:100A00006A95D1F783E08C930DC0220F331F441FEA
:100A1000551F12968D919C911397019713969C9355
:100A20008E931297203080E0380780E0480780E4FA
:100A3000580758F314962D933D934D935C93179755
:100A400008952F3F310579F4411551056105710570
:100A500019F484E08C93089564FF03C081E08C93C3
:100A600012C01C9210C02F57304013963C932E9307
:100A7000129783E08C9387E0440F551F661F771F02
:100A80008A95D1F7706414964D935D936D937C9322
:100A9000179708951F93DC01FB019C91923008F495
:100AA00047C08081823008F443C0943051F41196DD
:100AB0001C91843099F58181682F70E0611B710968
:100AC0003FC0843021F0923031F48230B9F181811D
:100AD000882389F12DC011961C9111978230F1F075
:100AE00081811817D9F412962D913C911397828128
:100AF00093818217930794F028173907BCF0149656
:100B00008D919D910D90BC91A02D248135814681C0
:100B10005781281739074A075B0718F4112341F05A
:100B20000AC082179307A407B50740F4112319F0F0
:100B300061E070E005C06FEF7FEF02C060E070E041
:100B4000CB011F910895DF93CF9300D000D0CDB794
:100B5000DEB782E396E00E947F078FE090E0A0E09E
:100B6000B0E089839A83AB83BC8389810E945F074D
:100B70000E9419070E94EB070F900F900F900F90A3
:100B8000CF91DF9108950F93DF93CF93CDB7DEB769
:100B900028970FB6F894DEBF0FBECDBF9A83898326
:100BA0004B835C836D837E832F8308878F81882F9F
:100BB00090E0880F991F880F991F880F991FFC01DB
:100BC000E655FF4F80819181009709F041C08F81E8
:100BD000882F90E0880F991F880F991F880F991F01
:100BE000FC01E655FF4F89819A81918380838F8133
:100BF000882F90E0880F991F880F991F0196880F02
:100C0000991FFC01E655FF4F8B819C81AD81BE8110
:100C100080839183A283B3838F81882F90E0880F94
:100C2000991F880F991F880F991FFC01E055FF4FEE
:100C3000888580838F81882F90E0880F991F880F87
:100C4000991F880F991FFC01EF54FF4F81E08083AB
:100C500028960FB6F894DEBF0FBECDBFCF91DF91BF
:100C60000F910895DF93CF930F92CDB7DEB78091A8
:100C7000C2009091C300A091C400B091C50001963C
:100C8000A11DB11D8093C2009093C300A093C40026
:100C9000B093C50019827EC08981882F90E0880FAB
:100CA000991F880F991F880F991FFC01EF54FF4F60
:100CB00081E080838981882F90E0880F991F880FB9
:100CC000991F880F991FFC01E655FF4F8081918184
:100CD000009709F45CC08981882F90E0880F991FE4
:100CE000880F991F880F991FFC01E055FF4F8081E5
:100CF000882391F58981482F50E08981882F90E0E1
:100D0000880F991F880F991F0196880F991FFC0162
:100D1000E655FF4F80819181A281B381282F215018
:100D2000CA01880F991F880F991F880F991FFC010E
:100D3000E055FF4F20838981882F90E0880F991F0D
:100D4000880F991F880F991FFC01E655FF4F0190EE
:100D5000F081E02D09951BC08981282F30E0C90161
:100D6000880F991F880F991F880F991FFC01E05564
:100D7000FF4F8081482F4150C901880F991F880F6C
:100D8000991F880F991FFC01E055FF4F408389810F
:100D90008F5F89838981833008F47ECF0F90CF9154
:100DA000DF910895DF93CF930F92CDB7DEB789839C
:100DB0008981882F90E0880F991F880F991F880FCD
:100DC000991FFC01EF54FF4F81E080830F90CF917A
:100DD000DF910895DF93CF930F92CDB7DEB789836C
:100DE0008981882F90E0880F991F880F991F880F9D
:100DF000991FFC01EF54FF4F10820F90CF91DF91AC
:100E00000895DF93CF930F92CDB7DEB789838981A1
:100E1000882F90E0880F991F880F991F880F991FBE
:100E2000FC01E655FF4F118210820F90CF91DF91A8
:100E30000895DF93CF93CDB7DEB7A3E5B0E0E3E548
:100E4000F0E08081887F8C93A3E5B0E0E3E5F0E0FB
:100E5000808185608C93A3E5B0E0E3E5F0E08081DC
:100E60008F7B8C93A3E5B0E0E3E5F0E080818860C0
:100E70008C93A9E5B0E0E9E5F0E0808182608C9395
:100E8000A3E5B0E0E3E5F0E080818F7D8C93A3E5FE
:100E9000B0E0E3E5F0E080818F7E8C93CF91DF912D
:100EA0000895DF93CF930F92CDB7DEB78983E2E544
:100EB000F0E0898180830F90CF91DF910895DF93D7
:100EC000CF930F92CDB7DEB78983ECE5F0E089814F
:100ED00080830F90CF91DF910895DF93CF9300D05F
:100EE000CDB7DEB79A83898389819A819093520521
:100EF000809351050F900F90CF91DF910895DF936C
:100F0000CF9300D0CDB7DEB79A83898389819A8148
:100F100090935205809351050F900F90CF91DF91E0
:100F200008951F920F920FB60F9211242F933F93A3
:100F30004F935F936F937F938F939F93AF93BF93E1
:100F4000EF93FF93DF93CF93CDB7DEB7E0915105D9
:100F5000F09152050995CF91DF91FF91EF91BF91EB
:100F6000AF919F918F917F916F915F914F913F9141
:100F70002F910F900FBE0F901F9018951F920F92F8
:100F80000FB60F9211242F933F934F935F936F935C
:100F90007F938F939F93AF93BF93EF93FF93DF93D1
:100FA000CF93CDB7DEB7E0915105F0915205099589
:100FB000CF91DF91FF91EF91BF91AF919F918F9171
:100FC0007F916F915F914F913F912F910F900FBE45
:100FD0000F901F901895DF93CF93CDB7DEB7AFE595
:100FE000B0E0EFE5F0E0808180688C93CF91DF91F5
:100FF0000895DF93CF93CDB7DEB7AFE5B0E0EFE56F
:10100000F0E080818F778C93CF91DF910895DF930B
:10101000CF9300D000D000D0CDB7DEB78A836B83EA
:101020004C8381E089838A81883008F0E8C08B8115
:10103000282F30E03E832D838D819E818130910564
:1010400009F448C02D813E81223031052CF48D8178
:101050009E81009771F0D1C02D813E8122303105F3
:1010600009F469C08D819E818330910509F494C093
:10107000C4C08C818130A1F4AAE3B0E0EAE3F0E0DF
:101080008081482F8A81282F30E081E090E0022E75
:1010900002C0880F991F0A94E2F7842B8C93B0C08A
:1010A0008C818823A9F4AAE3B0E0EAE3F0E0808130
:1010B000482F8A81282F30E081E090E0022E02C084
:1010C000880F991F0A94E2F7809584238C9398C027
:1010D000198296C08C818130A1F4A7E3B0E0E7E3E8
:1010E000F0E08081482F8A81282F30E081E090E075
:1010F000022E02C0880F991F0A94E2F7842B8C936A
:101100007FC08C818823A9F4A7E3B0E0E7E3F0E097
:101110008081482F8A81282F30E081E090E0022EE4
:1011200002C0880F991F0A94E2F7809584238C935C
:1011300067C0198265C08C818130A1F4A4E3B0E05E
:10114000E4E3F0E08081482F8A81282F30E081E0BD
:1011500090E0022E02C0880F991F0A94E2F7842BB8
:101160008C934EC08C818823A9F4A4E3B0E0E4E31F
:10117000F0E08081482F8A81282F30E081E090E0E4
:10118000022E02C0880F991F0A94E2F780958423EB
:101190008C9336C0198234C08C818130A1F4A1E3D4
:1011A000B0E0E1E3F0E08081482F8A81282F30E031
:1011B00081E090E0022E02C0880F991F0A94E2F7A6
:1011C000842B8C931DC08C818823A9F4A1E3B0E00B
:1011D000E1E3F0E08081482F8A81282F30E081E030
:1011E00090E0022E02C0880F991F0A94E2F78095C2
:1011F00084238C9305C0198203C0198201C019820F
:10120000898126960FB6F894DEBF0FBECDBFCF9171
:10121000DF910895DF93CF9300D000D00F92CDB728
:10122000DEB78A836B8381E089838B818F3F19F0DE
:101230008B818823A9F58A81282F30E03D832C8378
:101240008C819D8181309105D1F02C813D812230AE
:1012500031052CF48C819D81009761F01FC02C8199
:101260003D812230310581F08C819D818330910553
:1012700081F014C0EAE3F0E08B81808312C0E7E3E1
:10128000F0E08B8180830DC0E4E3F0E08B8180830C
:1012900008C0E1E3F0E08B81808303C0198201C0C4
:1012A000198289810F900F900F900F900F90CF911E
:1012B000DF910895DF93CF9300D000D000D0CDB759
:1012C000DEB78A836B834C8381E089838A8188308F
:1012D00008F0E8C08B81282F30E03E832D838D817C
:1012E0009E818130910509F448C02D813E812230D4
:1012F00031052CF48D819E81009771F0D1C02D8134
:101300003E812230310509F469C08D819E81833090
:10131000910509F494C0C4C08C818130A1F4ABE381
:10132000B0E0EBE3F0E08081482F8A81282F30E0A5
:1013300081E090E0022E02C0880F991F0A94E2F724
:10134000842B8C93B0C08C818823A9F4ABE3B0E0EC
:10135000EBE3F0E08081482F8A81282F30E081E0A4
:1013600090E0022E02C0880F991F0A94E2F7809540
:1013700084238C9398C0198296C08C818130A1F40B
:10138000A8E3B0E0E8E3F0E08081482F8A81282FCD
:1013900030E081E090E0022E02C0880F991F0A948D
:1013A000E2F7842B8C937FC08C818823A9F4A8E377
:1013B000B0E0E8E3F0E08081482F8A81282F30E018
:1013C00081E090E0022E02C0880F991F0A94E2F794
:1013D000809584238C9367C0198265C08C8181308D
:1013E000A1F4A5E3B0E0E5E3F0E08081482F8A8135
:1013F000282F30E081E090E0022E02C0880F991F74
:101400000A94E2F7842B8C934EC08C818823A9F434
:10141000A5E3B0E0E5E3F0E08081482F8A81282F42
:1014200030E081E090E0022E02C0880F991F0A94FC
:10143000E2F7809584238C9336C0198234C08C8166
:101440008130A1F4A2E3B0E0E2E3F0E08081482F34
:101450008A81282F30E081E090E0022E02C0880FC0
:10146000991F0A94E2F7842B8C931DC08C818823EA
:10147000A9F4A2E3B0E0E2E3F0E08081482F8A81A2
:10148000282F30E081E090E0022E02C0880F991FE3
:101490000A94E2F7809584238C9305C0198203C0D7
:1014A000198201C01982898126960FB6F894DEBF91
:1014B0000FBECDBFCF91DF910895DF93CF9300D0C2
:1014C00000D00F92CDB7DEB78A836B8381E089832A
:1014D0008A81282F30E03D832C838C819D8181304F
:1014E0009105D1F02C813D81223031052CF48C8185
:1014F0009D81009761F01FC02C813D812230310514
:1015000081F08C819D818330910581F014C0EBE3E3
:10151000F0E08B81808310C0E8E3F0E08B81808372
:101520000BC0E5E3F0E08B81808306C0E2E3F0E0EE
:101530008B81808301C0198289810F900F900F9059
:101540000F900F90CF91DF910895DF93CF93CDB798
:10155000DEB727970FB6F894DEBF0FBECDBF8A83E4
:101560006B835D834C8381E089838A81883008F0B6
:1015700079C08C819D818130910509F473C08B8184
:10158000282F30E03F832E834E815F81413051050B
:1015900059F18E819F818230910534F42E813F81F3
:1015A0002115310569F05CC04E815F8142305105E3
:1015B00079F18E819F818330910509F43DC050C03F
:1015C000E9E3F0E08081282F30E08A81882F90E0E5
:1015D000A90102C0559547958A95E2F7CA01817025
:1015E000EC81FD8180833FC0E6E3F0E08081282F1D
:1015F00030E08A81882F90E0A90102C05595479577
:101600008A95E2F7CA018170EC81FD8180832BC04D
:10161000E3E3F0E08081282F30E08A81882F90E09A
:10162000A90102C0559547958A95E2F7CA018170D4
:10163000EC81FD81808317C0E0E3F0E08081282FFA
:1016400030E08A81882F90E0A90102C05595479526
:101650008A95E2F7CA018170EC81FD81808303C025
:10166000198201C01982898127960FB6F894DEBFCE
:101670000FBECDBFCF91DF910895DF93CF9300D000
:1016800000D000D0CDB7DEB78A836B834C8381E076
:1016900089838A81853008F097C08B81282F30E0BC
:1016A0003E832D838D819E8181309105A1F12D8115
:1016B0003E81223031052CF48D819E81009771F09E
:1016C00081C02D813E812230310509F441C08D81D8
:1016D0009E818330910509F458C074C0ABE3B0E03B
:1016E000EBE3F0E08081482F8A81282F30E08FE003
:1016F00090E0022E02C0880F991F0A94E2F78095AD
:1017000084238C93ABE3B0E0EBE3F0E090818C8139
:10171000892B8C935AC0A8E3B0E0E8E3F0E0808125
:10172000482F8A81282F30E08FE090E0022E02C0FF
:10173000880F991F0A94E2F7809584238C93A8E37D
:10174000B0E0E8E3F0E090818C81892B8C933DC080
:10175000A5E3B0E0E5E3F0E08081482F8A81282FFF
:1017600030E08FE090E0022E02C0880F991F0A94AB
:10177000E2F7809584238C93A5E3B0E0E5E3F0E005
:1017800090818C81892B8C9320C0A2E3B0E0E2E3AE
:10179000F0E08081482F8A81282F30E08FE090E0B0
:1017A000022E02C0880F991F0A94E2F780958423C5
:1017B0008C93A2E3B0E0E2E3F0E090818C81892B8E
:1017C0008C9303C0198201C01982898126960FB6B5
:1017D000F894DEBF0FBECDBFCF91DF910895DF93A8
:1017E000CF9300D000D0CDB7DEB789836A838981DB
:1017F000282F30E03C832B838B819C8181309105A5
:10180000D1F02B813C81223031052CF48B819C81DD
:10181000009761F01EC02B813C812230310581F0A0
:101820008B819C818330910581F013C0EAE3F0E065
:101830008A8180830EC0E7E3F0E08A81808309C05B
:10184000E4E3F0E08A81808304C0E1E3F0E08A8190
:1018500080830F900F900F900F90CF91DF9108959C
:10186000DF93CF9300D000D0CDB7DEB789836A83F2
:101870008981282F30E03C832B838B819C818130B0
:101880009105D1F02B813C81223031052CF48B81E4
:101890009C81009761F01EC02B813C812230310574
:1018A00081F08B819C818330910581F013C0EBE343
:1018B000F0E08A8180830EC0E2E3F0E08A818083D9
:1018C00009C0E5E3F0E08A81808304C0E2E3F0E050
:1018D0008A8180830F900F900F900F90CF91DF91AE
:1018E0000895DF93CF93CDB7DEB727970FB6F8945F
:1018F000DEBF0FBECDBF89836A834B838B8181306E
:1019000009F06FC08981282F30E03F832E838E81BC
:101910009F818130910549F12E813F81223031052F
:101920002CF48E819F81009761F0D2C02E813F817F
:101930002230310571F18E819F8183309105E9F16B
:10194000C7C0AAE3B0E0EAE3F0E08081482F8A81D3
:10195000282F30E081E090E0022E02C0880F991F0E
:101960000A94E2F7842B8C93B3C0A7E3B0E0E7E3DB
:10197000F0E08081482F8A81282F30E081E090E0DC
:10198000022E02C0880F991F0A94E2F7842B8C93D1
:101990009FC0A4E3B0E0E4E3F0E08081482F8A81B7
:1019A000282F30E081E090E0022E02C0880F991FBE
:1019B0000A94E2F7842B8C938BC0A1E3B0E0E1E3BF
:1019C000F0E08081482F8A81282F30E081E090E08C
:1019D000022E02C0880F991F0A94E2F7842B8C9381
:1019E00077C08B81882309F073C08981282F30E06C
:1019F0003D832C838C819D818130910559F12C810F
:101A00003D81223031052CF48C819D81009769F055
:101A10005FC02C813D812230310589F18C819D810F
:101A20008330910509F440C053C0AAE3B0E0EAE373
:101A3000F0E08081482F8A81282F30E081E090E01B
:101A4000022E02C0880F991F0A94E2F78095842322
:101A50008C933EC0A7E3B0E0E7E3F0E08081482F3D
:101A60008A81282F30E081E090E0022E02C0880FAA
:101A7000991F0A94E2F7809584238C9329C0A4E3EC
:101A8000B0E0E4E3F0E08081482F8A81282F30E045
:101A900081E090E0022E02C0880F991F0A94E2F7BD
:101AA000809584238C9314C0A1E3B0E0E1E3F0E0DF
:101AB0008081482F8A81282F30E081E090E0022E3B
:101AC00002C0880F991F0A94E2F7809584238C93B3
:101AD00027960FB6F894DEBF0FBECDBFCF91DF9132
:101AE0000895DF93CF93CDB7DEB727970FB6F8945D
:101AF000DEBF0FBECDBF89836A834B838B8181306C
:101B000009F06FC08981282F30E03F832E838E81BA
:101B10009F818130910549F12E813F81223031052D
:101B20002CF48E819F81009761F0D2C02E813F817D
:101B30002230310571F18E819F8183309105E9F169
:101B4000C7C0ABE3B0E0EBE3F0E08081482F8A81CF
:101B5000282F30E081E090E0022E02C0880F991F0C
:101B60000A94E2F7842B8C93B3C0A8E3B0E0E8E3D7
:101B7000F0E08081482F8A81282F30E081E090E0DA
:101B8000022E02C0880F991F0A94E2F7842B8C93CF
:101B90009FC0A5E3B0E0E5E3F0E08081482F8A81B3
:101BA000282F30E081E090E0022E02C0880F991FBC
:101BB0000A94E2F7842B8C938BC0A2E3B0E0E2E3BB
:101BC000F0E08081482F8A81282F30E081E090E08A
:101BD000022E02C0880F991F0A94E2F7842B8C937F
:101BE00077C08B81882309F073C08981282F30E06A
:101BF0003D832C838C819D818130910559F12C810D
:101C00003D81223031052CF48C819D81009769F053
:101C10005FC02C813D812230310589F18C819D810D
:101C20008330910509F440C053C0ABE3B0E0EBE36F
:101C3000F0E08081482F8A81282F30E081E090E019
:101C4000022E02C0880F991F0A94E2F78095842320
:101C50008C933EC0A8E3B0E0E8E3F0E08081482F39
:101C60008A81282F30E081E090E0022E02C0880FA8
:101C7000991F0A94E2F7809584238C9329C0A5E3E9
:101C8000B0E0E5E3F0E08081482F8A81282F30E042
:101C900081E090E0022E02C0880F991F0A94E2F7BB
:101CA000809584238C9314C0A2E3B0E0E2E3F0E0DB
:101CB0008081482F8A81282F30E081E090E0022E39
:101CC00002C0880F991F0A94E2F7809584238C93B1
:101CD00027960FB6F894DEBF0FBECDBFCF91DF9130
:101CE0000895DF93CF9300D000D0CDB7DEB78983BE
:101CF0006A838981282F30E03C832B838B819C81F0
:101D00008130910549F12B813C81223031052CF441
:101D10008B819C81009761F05AC02B813C812230DD
:101D2000310571F18B819C8183309105E9F14FC0C0
:101D3000ABE3B0E0EBE3F0E08081482F8A81282F0D
:101D400030E081E090E0022E02C0880F991F0A94D3
:101D5000E2F784278C933BC0A8E3B0E0E8E3F0E02F
:101D60008081482F8A81282F30E081E090E0022E88
:101D700002C0880F991F0A94E2F784278C9327C02A
:101D8000A5E3B0E0E5E3F0E08081482F8A81282FC9
:101D900030E081E090E0022E02C0880F991F0A9483
:101DA000E2F784278C9313C0A2E3B0E0E2E3F0E013
:101DB0008081482F8A81282F30E081E090E0022E38
:101DC00002C0880F991F0A94E2F784278C930F9022
:101DD0000F900F900F90CF91DF910895DF93CF93E5
:101DE00000D000D00F92CDB7DEB78A836B838A8193
:101DF000282F30E03D832C834C815D81413051059B
:101E000041F18C819D818230910534F42C813D819A
:101E10002115310561F052C04C815D814230510580
:101E200051F18C819D8183309105B9F147C0E9E37F
:101E3000F0E08081282F30E08B81882F90E0A9018D
:101E400002C0559547958A95E2F7CA01817089834A
:101E500035C0E6E3F0E08081282F30E08B81882FC9
:101E600090E0A90102C0559547958A95E2F7CA010D
:101E70008170898323C0E3E3F0E08081282F30E084
:101E80008B81882F90E0A90102C0559547958A95CE
:101E9000E2F7CA018170898311C0E0E3F0E080813C
:101EA000282F30E08B81882F90E0A90102C0559542
:101EB00047958A95E2F7CA018170898389810F90DD
:101EC0000F900F900F900F90CF91DF910895DF93B7
:101ED000CF9300D000D0CDB7DEB789838981282F7A
:101EE00030E03C832B838B819C818430910509F405
:101EF0004BC02B813C8125303105D4F48B819C81F2
:101F000081309105C1F12B813C81223031052CF4C7
:101F10008B819C81009761F149C02B813C812230EB
:101F2000310561F18B819C818330910551F13EC077
:101F30002B813C812730310581F18B819C81883058
:101F400091055CF42B813C812530310501F18B81B9
:101F50009C8186309105F1F029C02B813C8128308D
:101F60003105F1F08B819C8189309105E1F01EC033
:101F70009EE79A831DC02CE02A831AC036EB3A8371
:101F800017C08EE98A8314C09CEC9A8311C02AED95
:101F90002A830EC03AEF3A830BC08EE08A8308C0D2
:101FA0009FEF9A8305C02EED2A8302C03EE73A8355
:101FB0008A810F900F900F900F90CF91DF9108952D
:101FC000DF93CF93CDB7DEB780E06FEF0E94EF0BCA
:101FD00080E06FEF0E94300CCF91DF910895DF9386
:101FE000CF930F92CDB7DEB7898389810E94670FA7
:101FF000982F80E0692F0E94300C0F90CF91DF91D5
:102000000895DF93CF93CDB7DEB7E9970FB6F89475
:10201000DEBF0FBECDBF89AF83E061E040E00E942C
:10202000710D89AD982F991F9927991F83E067E05B
:10203000492F0E94710D89AD829586958695837092
:10204000982F917083E066E0492F0E94710D89AD51
:10205000829586958770982F917083E065E0492F6F
:102060000E94710D89AD82958F70982F917083E0D9
:1020700064E0492F0E94710D83E061E041E00E941D
:10208000710D80E090E0A0E8BFE38DAB9EABAFABFD
:10209000B8AF6DA97EA98FA998AD20E030E04AE7DE
:1020A00055E40E941F02DC01CB0189AB9AABABABBC
:1020B000BCAB69A97AA98BA99CA920E030E040E8D3
:1020C0005FE30E94790388232CF481E090E098ABD1
:1020D0008FA73FC069A97AA98BA99CA920E03FEFEF
:1020E0004FE757E40E94190318164CF56DA97EA915
:1020F0008FA998AD20E030E040E251E40E941F0239
:10210000DC01CB01BC01CD010E944900DC01CB0107
:1021100098AB8FA70FC080E991E09EA78DA78DA5F2
:102120009EA50197F1F79EA78DA78FA598A9019766
:1021300098AB8FA78FA598A9009769F714C069A9D4
:102140007AA98BA99CA90E944900DC01CB0198AB1C
:102150008FA78FA598A99CA78BA78BA59CA5019756
:10216000F1F79CA78BA783E061E040E00E94710D2E
:1021700080E090E0A0EFB1E48FA398A7A9A7BAA749
:102180006FA178A589A59AA520E030E04AE755E43B
:102190000E941F02DC01CB018BA39CA3ADA3BEA3B5
:1021A0006BA17CA18DA19EA120E030E040E85FE31F
:1021B0000E94790388232CF481E090E09AA389A3FC
:1021C0003FC06BA17CA18DA19EA120E03FEF4FE716
:1021D00057E40E94190318164CF56FA178A589A53C
:1021E0009AA520E030E040E251E40E941F02DC01A9
:1021F000CB01BC01CD010E944900DC01CB019AA3B7
:1022000089A30FC080E991E098A38F8F8F8D98A14B
:102210000197F1F798A38F8F89A19AA101979AA3AB
:1022200089A389A19AA1009769F714C06BA17CA129
:102230008DA19EA10E944900DC01CB019AA389A334
:1022400089A19AA19E8F8D8F8D8D9E8D0197F1F71B
:102250009E8F8D8F89AD869586958695982F9170E6
:1022600083E067E0492F0E94710D89AD86958695C0
:10227000982F917083E066E0492F0E94710D89AD1F
:102280008695982F917083E065E0492F0E94710D2B
:1022900089AD982F917083E064E0492F0E94710D01
:1022A00083E061E041E00E94710D80E090E0A0E8F1
:1022B000BFE3898F9A8FAB8FBC8F698D7A8D8B8DA1
:1022C0009C8D20E030E04AE755E40E941F02DC01CB
:1022D000CB018D8B9E8BAF8BB88F6D897E898F895B
:1022E000988D20E030E040E85FE30E947903882386
:1022F0002CF481E090E09C8B8B8B3FC06D897E89B4
:102300008F89988D20E03FEF4FE757E40E94190333
:1023100018164CF5698D7A8D8B8D9C8D20E030E000
:1023200040E251E40E941F02DC01CB01BC01CD015F
:102330000E944900DC01CB019C8B8B8B0FC080E994
:1023400091E09A8B898B89899A890197F1F79A8B09
:10235000898B8B899C8901979C8B8B8B8B899C8922
:10236000009769F714C06D897E898F89988D0E94C6
:102370004900DC01CB019C8B8B8B8B899C89988BD2
:102380008F878F8598890197F1F7988B8F8783E0E6
:1023900061E040E00E94710D80E090E0A0EFB1E4C8
:1023A0008B879C87AD87BE876B857C858D859E8559
:1023B00020E030E04AE755E40E941F02DC01CB0137
:1023C0008F839887A987BA876F81788589859A8551
:1023D00020E030E040E85FE30E94790388232CF49A
:1023E00081E090E09E838D833FC06F8178858985F1
:1023F0009A8520E03FEF4FE757E40E941903181633
:102400004CF56B857C858D859E8520E030E040E233
:1024100051E40E941F02DC01CB01BC01CD010E94EE
:102420004900DC01CB019E838D830FC080E991E0E0
:102430009C838B838B819C810197F1F79C838B8399
:102440008D819E8101979E838D838D819E810097D2
:1024500069F714C06F81788589859A850E94490043
:10246000DC01CB019E838D838D819E819A8389833C
:1024700089819A810197F1F79A838983E9960FB64A
:10248000F894DEBF0FBECDBFCF91DF910895DF93EB
:10249000CF93CDB7DEB7E8970FB6F894DEBF0FBE87
:1024A000CDBF80E090E0A0EFB1E48DAB9EABAFABD1
:1024B000B8AF6DA97EA98FA998AD20E030E04AE7BA
:1024C00055E40E941F02DC01CB0189AB9AABABAB98
:1024D000BCAB69A97AA98BA99CA920E030E040E8AF
:1024E0005FE30E94790388232CF481E090E098ABAD
:1024F0008FA73FC069A97AA98BA99CA920E03FEFCB
:102500004FE757E40E94190318164CF56DA97EA9F0
:102510008FA998AD20E030E040E251E40E941F0214
:10252000DC01CB01BC01CD010E944900DC01CB01E3
:1025300098AB8FA70FC080E991E09EA78DA78DA5CE
:102540009EA50197F1F79EA78DA78FA598A9019742
:1025500098AB8FA78FA598A9009769F714C069A9B0
:102560007AA98BA99CA90E944900DC01CB0198ABF8
:102570008FA78FA598A99CA78BA78BA59CA5019732
:10258000F1F79CA78BA783E062E041E00E94710C09
:1025900083E061E041E00E94710C83E067E041E08C
:1025A0000E94710C83E066E041E00E94710C83E0C0
:1025B00065E041E00E94710C83E064E041E00E942C
:1025C000710C88E20E944C1480E090E0A0E0B0E43E
:1025D0008FA398A7A9A7BAA76FA178A589A59AA53F
:1025E00020E030E04AE755E40E941F02DC01CB0105
:1025F0008BA39CA3ADA3BEA36BA17CA18DA19EA127
:1026000020E030E040E85FE30E94790388232CF467
:1026100081E090E09AA389A33FC06BA17CA18DA12A
:102620009EA120E03FEF4FE757E40E9419031816E0
:102630004CF56FA178A589A59AA520E030E040E28D
:1026400051E40E941F02DC01CB01BC01CD010E94BC
:102650004900DC01CB019AA389A30FC080E991E076
:1026600098A38F8F8F8D98A10197F1F798A38F8FE3
:1026700089A19AA101979AA389A389A19AA10097F8
:1026800069F714C06BA17CA18DA19EA10E94490095
:10269000DC01CB019AA389A389A19AA19E8F8D8F7A
:1026A0008D8D9E8D0197F1F79E8F8D8F8CE00E940E
:1026B0004C1480E090E0A0E0B0E4898F9A8FAB8F5B
:1026C000BC8F698D7A8D8B8D9C8D20E030E04AE740
:1026D00055E40E941F02DC01CB018D8B9E8BAF8BDA
:1026E000B88F6D897E898F89988D20E030E040E831
:1026F0005FE30E94790388232CF481E090E09C8BB7
:102700008B8B3FC06D897E898F89988D20E03FEF4C
:102710004FE757E40E94190318164CF5698D7A8D1E
:102720008B8D9C8D20E030E040E251E40E941F023E
:10273000DC01CB01BC01CD010E944900DC01CB01D1
:102740009C8B8B8B0FC080E991E09A8B898B898958
:102750009A890197F1F79A8B898B8B899C890197CC
:102760009C8B8B8B8B899C89009769F714C06D8932
:102770007E898F89988D0E944900DC01CB019C8B5A
:102780008B8B8B899C89988B8F878F8598890197F4
:10279000F1F7988B8F8781E00E944C1480E090E0E5
:1027A000A0E0B0E48B879C87AD87BE876B857C8576
:1027B0008D859E8520E030E04AE755E40E941F02A7
:1027C000DC01CB018F839887A987BA876F817885D1
:1027D00089859A8520E030E040E85FE30E94790334
:1027E00088232CF481E090E09E838D833FC06F812D
:1027F000788589859A8520E03FEF4FE757E40E946E
:10280000190318164CF56B857C858D859E8520E017
:1028100030E040E251E40E941F02DC01CB01BC0128
:10282000CD010E944900DC01CB019E838D830FC046
:1028300080E991E09C838B838B819C810197F1F7E8
:102840009C838B838D819E8101979E838D838D8157
:102850009E81009769F714C06F81788589859A8574
:102860000E944900DC01CB019E838D838D819E8176
:102870009A83898389819A810197F1F79A83898361
:1028800086E00E944C14E8960FB6F894DEBF0FBEA7
:10289000CDBFCF91DF910895DF93CF930F92CDB746
:1028A000DEB7898383E062E040E00E94710D898198
:1028B0000E9401100F90CF91DF910895DF93CF9385
:1028C0000F92CDB7DEB7898383E062E041E00E94DA
:1028D000710D89810E9401100F90CF91DF910895B1
:1028E000DF93CF9300D000D000D0CDB7DEB79E836A
:1028F0008D8319821A821B821C8215C029813A811C
:102900008D819E81FC01E20FF31F80810E945E1485
:1029100089819A81AB81BC810196A11DB11D8983FA
:102920009A83AB83BC8329813A818D819E81FC018E
:10293000E20FF31F8081882309F726960FB6F894DB
:10294000DEBF0FBECDBFCF91DF910895DF93CF9350
:10295000CDB7DEB781E00E944C14CF91DF9108958E
:10296000DF93CF9300D0CDB7DEB789836A838981A7
:10297000882321F48A818093C60007C08981813031
:1029800021F48A81805C8093C6000F900F90CF91D4
:10299000DF910895DF93CF93CDB7DEB7A2970FB63F
:1029A000F894DEBF0FBECDBF9AA389A389A19AA1D7
:1029B0009E012F5F3F4FB9014AE050E00E94BA2AC2
:1029C000CE0101960E947014A2960FB6F894DEBF55
:1029D0000FBECDBFCF91DF910895DF93CF9300D08D
:1029E000CDB7DEB79A838983E981FA818181E98154
:1029F000FA819081692F41E00E9407080F900F90A3
:102A0000CF91DF910895DF93CF9300D0CDB7DEB79C
:102A10009A838983E981FA818181E981FA819081B0
:102A2000692F41E00E945A090F900F90CF91DF91DA
:102A30000895DF93CF9300D0CDB7DEB79A83898313
:102A4000E981FA818181E981FA819081692F40E0F1
:102A50000E945A090F900F90CF91DF910895DF9354
:102A6000CF9300D0CDB7DEB79A8389838091C7001A
:102A7000882369F4E981FA818181E981FA81908171
:102A8000692F41E00E945A0981E08093C70080913C
:102A9000C700813061F4E981FA818181E981FA819D
:102AA0009081692F40E00E945A091092C7000F9050
:102AB0000F90CF91DF910895DF93CF93CDB7DEB71D
:102AC00027970FB6F894DEBF0FBECDBF9D838C83D2
:102AD0006E834F838AE190E00E9434189A83898341
:102AE00089819A81009709F46FC08091C800909104
:102AF000C900009741F489819A819093C90080931D
:102B0000C8000E94C3178E81823010F081E08E834E
:102B1000E981FA81118E108EE981FA818E81868B8E
:102B2000E981FA818F81878BE981FA818C819D818E
:102B30009183808389819A8102960E94CA18898133
:102B40009A810C960E94CA18E981FA8189819A813A
:102B500091878087E981FA8189819A81938B828B21
:102B60008E81282F30E084E090E0821B930BE98176
:102B7000FA8195878487E981FA8196898091CA00D4
:102B8000891728F4E981FA8186898093CA00E9814E
:102B9000FA818689282F30E0C901880F991F880F94
:102BA000991F880F991F820F931FAC014F525F4FDF
:102BB00089819A819C012E5F3F4FCA01B9010E9411
:102BC000DA1881E08B8302C08FEF8B838B8127968D
:102BD0000FB6F894DEBF0FBECDBFCF91DF91089541
:102BE000DF93CF9300D000D000D0CDB7DEB79C8369
:102BF0008B837E836D832091CB003091CC008B81C1
:102C00009C81820F931F9A8389838091C800909141
:102C1000C90002960E949219E091C800F091C90083
:102C200089819A81938382832091CB003091CC005B
:102C300089819A818217930770F48091F7009091AF
:102C4000F8002091C8003091C9002E5F3F4FB901B4
:102C50000E9426190DC08091F5009091F6002091F8
:102C6000C8003091C9002E5F3F4FB9010E9426195C
:102C70008D819E81009761F08091C8009091C9007C
:102C80009C01245F3F4F8D819E81B9010E942619CE
:102C900026960FB6F894DEBF0FBECDBFCF91DF9161
:102CA0000895DF93CF9300D0CDB7DEB73AC0F89444
:102CB000E091FE00F091FF00868197819A838983DD
:102CC00089819A810C960E949219789489819A81BF
:102CD00002960E949219E981FA8196898091CA0030
:102CE000891728F4E981FA8186898093CA00E981ED
:102CF000FA818689282F30E0C901880F991F880F33
:102D0000991F880F991F820F931FAC014F525F4F7D
:102D100089819A819C012E5F3F4FCA01B9010E94AF
:102D2000DA188091F900882309F0C1CF0F900F9035
:102D3000CF91DF910895DF93CF9300D000D0CDB72E
:102D4000DEB70E947E252091CD003091CE00821BFF
:102D5000930B9093D0008093CF0085C08091CB00DF
:102D60009091CC0001969093CC008093CB00809101
:102D7000CF009091D00001979093D0008093CF0026
:102D80008091CB009091CC00009709F064C08091B5
:102D9000F5009091F6009A8389838091F7009091D5
:102DA000F8009093F6008093F50089819A819093C2
:102DB000F8008093F7004FC0E091F500F091F60025
:102DC0000580F681E02D868197819C838B83EB8142
:102DD000FC81228133818091CB009091CC008217BD
:102DE000930708F440C0F8948B819C8102960E945E
:102DF0009219EB81FC8184899589009729F08B8158
:102E00009C810C960E9492197894EB81FC819689A2
:102E10008091CA00891728F4EB81FC818689809310
:102E2000CA00EB81FC818689282F30E0C901880F18
:102E3000991F880F991F880F991F820F931FAC014C
:102E40004F525F4F8B819C819C012E5F3F4FCA0187
:102E5000B9010E94DA18E091F500F091F600808146
:102E6000882309F0A9CF8091CF009091D0000097DE
:102E700009F074CF8091CB009091CC009093CE005C
:102E80008093CD000F900F900F900F90CF91DF9116
:102E90000895DF93CF9300D0CDB7DEB70E945116CF
:102EA0000E949B160AC08091CA00882309F466C05C
:102EB0008091CA0081508093CA008091CA00282F57
:102EC00030E0C901880F991F880F991F880F991F3B
:102ED000820F931FFC01EF52FF4F8081882319F36B
:102EE0008091CA00282F30E0C901880F991F880FF0
:102EF000991F880F991F820F931F8F529F4F9A839C
:102F00008983E981FA810180F281E02D82819381B8
:102F1000E981FA8192838183E981FA812181328179
:102F200089819A8103962817390759F4E981FA8132
:102F30000180F281E02D82819381E981FA8192837F
:102F40008183E981FA810180F281E02D8681978178
:102F50009093C9008093C800E091C800F091C90027
:102F6000408151818091C8009091C900E091C800D2
:102F7000F091C9002789622FFA0109950F900F90EF
:102F8000CF91DF910895DF93CF930F92CDB7DEB746
:102F9000198213C08981282F30E0C901880F991F39
:102FA000880F991F880F991F820F931F8F529F4F71
:102FB0000E94A01889818F5F89838981823050F3B4
:102FC00083EE90E00E94A0188CEE90E00E94A01882
:102FD00089EF90E00E94A01883EE90E09093F600B5
:102FE0008093F5008CEE90E09093F8008093F700CA
:102FF0000F90CF91DF910895DF93CF9300D000D051
:103000000F92CDB7DEB79D838C83EC81FD81058067
:10301000F681E02D868197819B838A838A819B81BB
:103020000C960E9492198A819B819C01245F3F4FDC
:1030300089EF90E0B9010E94DA18EA81FB81968954
:10304000E091C800F091C9008689981718F081E0D6
:10305000898301C0198289810F900F900F900F9082
:103060000F90CF91DF910895DF93CF9300D000D0E0
:10307000CDB7DEB79C838B831A8219820E94E82425
:1030800080910201909103012B813C81820F931F5B
:1030900023E0883E920718F5209102013091030148
:1030A0008B819C81280F391F80910201909103012F
:1030B00082179307A0F480910201909103018C5F25
:1030C0009E4F9A83898320910201309103018B8165
:1030D0009C81820F931F90930301809302010E94B1
:1030E000F42489819A810F900F900F900F90CF91C7
:1030F000DF910895DF93CF9300D0CDB7DEB79A83E9
:1031000089830F900F90CF91DF910895DF93CF9334
:10311000CDB7DEB71092030110920201CF91DF917B
:103120000895DF93CF93CDB7DEB7209102013091A0
:10313000030188EE93E0821B930BCF91DF910895FA
:10314000DF93CF9300D0CDB7DEB79A83898389818F
:103150009A810396E981FA8192838183E981FA81D8
:103160008FEF9FEF9483838389819A810396E9810E
:10317000FA819683858389819A810396E981FA8110
:1031800090878783E981FA8110820F900F90CF9109
:10319000DF910895DF93CF9300D0CDB7DEB79A8348
:1031A0008983E981FA81118610860F900F90CF9163
:1031B000DF910895DF93CF9300D000D000D0CDB73A
:1031C000DEB79C838B837E836D83EB81FC81818161
:1031D00092819A838983E981FA8182819381ED8149
:1031E000FE8193838283EB81FC8181819281ED81D9
:1031F000FE8195838483E981FA810280F381E02D49
:103200008D819E81958384838D819E81E981FA8160
:10321000938382838D819E81EB81FC819283818364
:10322000ED81FE818B819C8191878087EB81FC8180
:1032300080818F5FEB81FC81808326960FB6F894A6
:10324000DEBF0FBECDBFCF91DF910895DF93CF9347
:10325000CDB7DEB728970FB6F894DEBF0FBECDBF4F
:103260009E838D8378876F83EF81F885808191813C
:103270009A83898389819A812FEF8F3F920739F44E
:10328000ED81FE81878190859C838B8318C08D8121
:103290009E8103969C838B8306C0EB81FC81828197
:1032A00093819C838B83EB81FC810280F381E02DF1
:1032B0002081318189819A818217930770F7EB8190
:1032C000FC8182819381EF81F88593838283EF81F2
:1032D000F8850280F381E02D8F8198859583848322
:1032E000EF81F8858B819C81958384838F8198857C
:1032F000EB81FC8193838283EF81F8858D819E81B0
:1033000091878087ED81FE8180818F5FED81FE81D5
:10331000808328960FB6F894DEBF0FBECDBFCF9145
:10332000DF910895DF93CF9300D000D0CDB7DEB703
:103330009C838B83EB81FC81A281B381EB81FC8137
:103340008481958115969C938E931497EB81FC81D3
:10335000A481B581EB81FC818281938113969C933A
:103360008E931297EB81FC81808591859A83898366
:10337000E981FA81218132818B819C81281739076B
:1033800041F4EB81FC8184819581E981FA8192830A
:103390008183EB81FC8111861086E981FA8180812D
:1033A0008150E981FA8180830F900F900F900F90E8
:1033B000CF91DF910895DF93CF93CDB7DEB72897F4
:1033C0000FB6F894DEBF0FBECDBF9C838B837E8388
:1033D0006D8358874F83EB81FC8181E180838B81F2
:1033E0009C8101979C838B83EB81FC8182E28083AB
:1033F0008B819C8101979C838B83EB81FC8183E390
:1034000080838B819C8101979C838B838D819E819E
:103410009A8389838981EB81FC8180838B819C8164
:1034200001979C838B8389819A81892F99279A831D
:1034300089838981EB81FC8180838B819C810197C9
:103440009C838B83EB81FC8110828B819C81019713
:103450009C838B83EB81FC8180E880838B819C81C2
:1034600001979C838B83EB81FC8110828B819C81F3
:1034700001979C838B83EB81FC8182E080838B812D
:103480009C8101979C838B83EB81FC8183E080830B
:103490008B819C8101979C838B83EB81FC8184E0F1
:1034A00080838B819C8101979C838B83EB81FC8142
:1034B00085E080838B819C8101979C838B83EB814A
:1034C000FC8186E080838B819C8101979C838B8328
:1034D000EB81FC8187E080838B819C8101979C83B9
:1034E0008B83EB81FC8188E080838B819C810197B9
:1034F0009C838B83EB81FC8189E080838B819C8121
:1035000001979C838B83EB81FC8180E180838B819D
:103510009C8101979C838B83EB81FC8181E180837B
:103520008B819C8101979C838B83EB81FC8182E161
:1035300080838B819C8101979C838B83EB81FC81B1
:1035400083E180838B819C8101979C838B83EB81BA
:10355000FC8184E180838B819C8101979C838B8398
:10356000EB81FC8185E180838B819C8101979C8329
:103570008B83EB81FC8186E180838B819C81019729
:103580009C838B83EB81FC8187E180838B819C8191
:1035900001979C838B83EB81FC8188E180838B8105
:1035A0009C8101979C838B83EB81FC8189E18083E3
:1035B0008B819C8101979C838B83EB81FC8180E2D2
:1035C00080838B819C8101979C838B83EB81FC8121
:1035D00081E280838B819C8101979C838B83EB812B
:1035E000FC8182E280838B819C8101979C838B8309
:1035F000EB81FC8183E280838B819C8101979C839A
:103600008B838F8198859A8389838981EB81FC8163
:1036100080838B819C8101979C838B8389819A8194
:10362000892F99279A8389838981EB81FC81808303
:103630008B819C8101979C838B83EB81FC8186E24B
:1036400080838B819C8101979C838B83EB81FC81A0
:1036500087E280838B819C8101979C838B83EB81A4
:10366000FC8188E280838B819C8101979C838B8382
:10367000EB81FC8189E280838B819C8101979C8313
:103680008B83EB81FC8180E380838B819C8101971C
:103690009C838B83EB81FC8181E380838B819C8184
:1036A00001979C838B838B819C8128960FB6F8941D
:1036B000DEBF0FBECDBFCF91DF910895DF93CF93D3
:1036C000CDB7DEB70E944E1CA091EC04B091ED0482
:1036D000CD91CDBFDD91DEBFFF91EF91DF91CF9115
:1036E000BF91AF919F918F917F916F915F914F911A
:1036F0003F912F911F910F91FF90EF90DF90CF900E
:10370000BF90AF909F908F907F906F905F904F9001
:103710003F902F901F900F900FBE0F90089581E063
:10372000CF91DF910895DF93CF93CDB7DEB7CF91DF
:10373000DF9108950F920FB6F8940F921F92112403
:103740002F923F924F925F926F927F928F929F92B1
:10375000AF92BF92CF92DF92EF92FF920F931F939F
:103760002F933F934F935F936F937F938F939F9389
:10377000AF93BF93CF93DF93EF93FF93A091EC04AC
:10378000B091ED040DB60D920EB60D920E948826F2
:10379000A091EC04B091ED04CD91CDBFDD91DEBFE1
:1037A000FF91EF91DF91CF91BF91AF919F918F9159
:1037B0007F916F915F914F913F912F911F910F9149
:1037C000FF90EF90DF90CF90BF90AF909F908F9041
:1037D0007F906F905F904F903F902F901F900F9031
:1037E0000FBE0F9008950F920FB6F8940F921F928C
:1037F00011242F923F924F925F926F927F928F92FD
:103800009F92AF92BF92CF92DF92EF92FF920F936F
:103810001F932F933F934F935F936F937F938F9358
:103820009F93AF93BF93CF93DF93EF93FF93A091B9
:10383000EC04B091ED040DB60D920EB60D920E94FF
:10384000B3250E948826A091EC04B091ED04CD919F
:10385000CDBFDD91DEBFFF91EF91DF91CF91BF91A1
:10386000AF919F918F917F916F915F914F913F9118
:103870002F911F910F91FF90EF90DF90CF90BF900D
:10388000AF909F908F907F906F905F904F903F9000
:103890002F901F900F900FBE0F900895DF93CF933E
:1038A00000D000D000D0CDB7DEB780E89EE3A0E026
:1038B000B0E08B839C83AD83BE838B819C81AD8183
:1038C000BE81689415F8B695A79597958795169437
:1038D000D1F78B839C83AD83BE838B819C81AD812B
:1038E000BE810197A109B1098B839C83AD83BE83FF
:1038F0008B8189838B819C81AD81BE81892F9A2F99
:10390000AB2FBB278B839C83AD83BE838B818A8344
:10391000EBE4F0E08A818083EAE4F0E0898180834F
:103920008BE08983EEE4F0E089818083E9E5F0E0D3
:1039300080818983898180618983E9E5F0E08981DB
:10394000808326960FB6F894DEBF0FBECDBFCF9111
:10395000DF9108950E94F31B1895DF93CF93CDB7A5
:10396000DEB728970FB6F894DEBF0FBECDBF8F83AA
:1039700068871A8219828F81882309F48CC08FE1AD
:1039800090E00E9434189E838D838D819E810097E4
:1039900009F481C08F81282F30E08885882F90E03E
:1039A000AC01249FC001259F900D349F900D1124E0
:1039B00001969C838B838B819C810E943418ED81BE
:1039C000FE8191838083ED81FE81808191810097CA
:1039D00009F45DC0ED81FE81408151818F81282FE6
:1039E00030E08885882F90E0BC01269FC001279F8A
:1039F000900D369F900D1124840F951FED81FE814F
:103A000093838283ED81FE81128EED81FE81808120
:103A10009181ED81FE8195838483ED81FE814081DA
:103A200051818F81882F90E09C0121503040888502
:103A3000882F90E0BC01269FC001279F900D369FE4
:103A4000900D1124840F951FED81FE81978386834D
:103A5000ED81FE818F81838FED81FE818885848F4A
:103A6000ED81FE818FEF858FED81FE818FEF868F57
:103A70008D819E8108960E94A0188D819E8141961D
:103A80000E94A0188D819E819A83898304C08D81B4
:103A90009E810E947A1889819A8128960FB6F8949F
:103AA000DEBF0FBECDBFCF91DF910895DF93CF93DF
:103AB00000D000D0CDB7DEB78B836C838B8160E004
:103AC0000E94AD1C9A83898389819A81009721F095
:103AD000E981FA818C81828F89819A810F900F9080
:103AE0000F900F90CF91DF910895DF93CF93CDB7D3
:103AF000DEB72C970FB6F894DEBF0FBECDBF9E8306
:103B00008D8378876F835A8749872B8719820FB6F1
:103B1000F8940F92ED81FE81928DED81FE81838D6F
:103B20009817D8F48D819E812F813885B9014B85F6
:103B30000E94B01FED81FE818189882349F08D812B
:103B40009E8141960E943727813011F40E949A1B72
:103B50000F900FBE81E08C875CC089859A850097A5
:103B600021F40F900FBE1C8654C08981882331F444
:103B7000CE0102960E949F2781E089830F900FBE9D
:103B80000E94E8240FB6F8940F92ED81FE81858D96
:103B90008F3F19F4ED81FE81158EED81FE81868DBA
:103BA0008F3F19F4ED81FE81168E0F900FBECE016E
:103BB00002969E01275F3F4FB9010E94B8278823D4
:103BC00009F58D819E810E9414218823A1F08D81A9
:103BD0009E81089629853A85B9010E94EE268D813D
:103BE0009E810E948D200E94F424882309F08FCFAB
:103BF0000E949A1B8CCF8D819E810E948D200E94F5
:103C0000F42485CF8D819E810E948D200E94F42412
:103C10001C868C852C960FB6F894DEBF0FBECDBFE8
:103C2000CF91DF910895DF93CF93CDB7DEB729977A
:103C30000FB6F894DEBF0FBECDBF9C838B837E830F
:103C40006D8358874F8329871982EB81FC81928D80
:103C5000EB81FC81838D981740F58B819C812D81B0
:103C60003E81B90149850E94B01FEB81FC81868DA0
:103C70008F3F89F4EB81FC818189882399F08B81C6
:103C80009C8141960E943727882361F0EF81F88557
:103C900081E0808307C0EB81FC81868D8F5FEB81A3
:103CA000FC81868F81E08A8301C01A828A812996ED
:103CB0000FB6F894DEBF0FBECDBFCF91DF91089550
:103CC000DF93CF93CDB7DEB72E970FB6F894DEBF54
:103CD0000FBECDBF98878F837A8769875C874B87B4
:103CE0002D871B820FB6F8940F92EF81F885828D95
:103CF000882309F43FC0EF81F885868197819A83F4
:103D000089838F81988529853A85B9010E9445204C
:103D10008D858823B1F4EF81F885828D8150EF8104
:103D2000F885828FEF81F88580858823F1F08F8177
:103D3000988508960E9437278130B9F40E949A1B13
:103D400014C0EF81F88589819A8197838683EF81FA
:103D5000F8858189882349F08F81988541960E9452
:103D60003727882311F00E949A1B0F900FBE81E025
:103D70008E875CC08B859C85009721F40F900FBEC9
:103D80001E8654C08B81882331F4CE0104960E9494
:103D90009F2781E08B830F900FBE0E94E8240FB60F
:103DA000F8940F92EF81F885858D8F3F19F4EF819C
:103DB000F885158EEF81F885868D8F3F19F4EF8198
:103DC000F885168E0F900FBECE0104969E01255FDA
:103DD0003F4FB9010E94B827882309F58F81988544
:103DE0000E94E1208823A1F08F81988541962B8540
:103DF0003C85B9010E94EE268F8198850E948D2016
:103E00000E94F424882309F06DCF0E949A1B6ACF88
:103E10008F8198850E948D200E94F42463CF8F812A
:103E200098850E948D200E94F4241E868E852E96F1
:103E30000FB6F894DEBF0FBECDBFCF91DF910895CE
:103E4000DF93CF93CDB7DEB728970FB6F894DEBFD8
:103E50000FBECDBF9C838B837E836D8358874F833A
:103E60001982EB81FC81828D882371F18B819C8189
:103E70002D813E81B9010E944520EB81FC81828D1C
:103E80008150EB81FC81828FEB81FC81858D8F3F9E
:103E900089F4EB81FC818085882399F08B819C815A
:103EA00008960E943727882361F0EF81F88581E02A
:103EB000808307C0EB81FC81858D8F5FEB81FC8166
:103EC000858F81E08A8301C01A828A8128960FB685
:103ED000F894DEBF0FBECDBFCF91DF910895DF9381
:103EE000CF9300D00F92CDB7DEB79B838A830FB6F6
:103EF000F8940F92EA81FB81828D89830F900FBE27
:103F000089810F900F900F90CF91DF910895DF93EB
:103F1000CF9300D00F92CDB7DEB79B838A83EA811F
:103F2000FB81828D898389810F900F900F90CF91B3
:103F3000DF910895DF93CF9300D0CDB7DEB79A839A
:103F40008983E981FA81808191810E947A1889812F
:103F50009A810E947A180F900F90CF91DF91089567
:103F6000DF93CF9300D000D00F92CDB7DEB79A8306
:103F700089837C836B834D83E981FA81848D8823D7
:103F800009F474C08D81882399F5E981FA816481EF
:103F90007581E981FA81848D482F50E02B813C8125
:103FA000CB01B9010E949B2AE981FA8124813581E4
:103FB000E981FA81848D882F90E0820F931FE98137
:103FC000FA8195838483E981FA8124813581E981AD
:103FD000FA81828193812817390708F447C0E98163
:103FE000FA8180819181E981FA81958384833EC041
:103FF000E981FA8166817781E981FA81848D482F90
:1040000050E02B813C81CB01B9010E949B2AE981C0
:10401000FA8126813781E981FA81848D882F90E0A9
:10402000909581959F4F820F931FE981FA81978325
:104030008683E981FA8126813781E981FA8180814D
:1040400091812817390790F4E981FA81228133811F
:10405000E981FA81848D882F90E0909581959F4F1A
:10406000820F931FE981FA8197838683E981FA8120
:10407000828D8F5FE981FA81828F0F900F900F9070
:104080000F900F90CF91DF910895DF93CF9300D0E1
:1040900000D0CDB7DEB79A8389837C836B83E981B7
:1040A000FA8180819181009789F1E981FA812681E5
:1040B0003781E981FA81848D882F90E0820F931FE8
:1040C000E981FA8197838683E981FA8126813781A4
:1040D000E981FA81828193812817390740F0E981CB
:1040E000FA8180819181E981FA8197838683E981D0
:1040F000FA8146815781E981FA81848D282F30E049
:104100008B819C81BA01A9010E949B2A0F900F907C
:104110000F900F90CF91DF910895DF93CF9300D050
:10412000CDB7DEB79A8389830FB6F8940F9215C086
:10413000E981FA8181898823A9F089819A81419650
:104140000E943727882311F00E941F28E981FA81F5
:10415000868D8150E981FA81868FE981FA81868D89
:10416000181634F3E981FA818FEF868F0F900FBE16
:104170000FB6F8940F9215C0E981FA8180858823E3
:10418000A9F089819A8108960E943727882311F027
:104190000E941F28E981FA81858D8150E981FA8189
:1041A000858FE981FA81858D181634F3E981FA81CA
:1041B0008FEF858F0F900FBE0F900F90CF91DF91F3
:1041C0000895DF93CF9300D00F92CDB7DEB79B83D6
:1041D0008A830FB6F8940F92EA81FB81828D19824F
:1041E000882311F481E089830F900FBE89810F909D
:1041F0000F900F90CF91DF910895DF93CF9300D070
:104200000F92CDB7DEB79B838A83EA81FB81828DD3
:104210001982882311F481E0898389810F900F909E
:104220000F90CF91DF910895DF93CF9300D00F923D
:10423000CDB7DEB79B838A830FB6F8940F92EA81DD
:10424000FB81928DEA81FB81838D1982981711F48D
:1042500081E089830F900FBE89810F900F900F909E
:10426000CF91DF910895DF93CF9300D00F92CDB718
:10427000DEB79B838A83EA81FB81928DEA81FB8191
:10428000838D1982981711F481E0898389810F90B9
:104290000F900F90CF91DF910895AF92BF92CF9280
:1042A000DF92EF92FF920F931F93DF93CF93CDB7DF
:1042B000DEB764970FB6F894DEBF0FBECDBF9F8305
:1042C0008E83798768875B874A873D872C870E872F
:1042D000F88AEF86DA8AC98ABC8AAB8A8A859B8586
:1042E00029893A89B9010E9452299C838B838B8149
:1042F0009C81009709F499C0EB81FC812789308D5E
:104300008A859B850197820F931F9A8389838B816E
:104310009C8128853985EB89FC89AA85BB85B901F3
:104320004E859F018D010E94332889819A812E81BB
:104330003F814C855D85B9010E94DB19EB81FC81D1
:10434000918380838F859889009731F0EF85F88974
:104350008B819C81918380830FB6F8940F9280911A
:10436000EF048F5F8093EF048091EC049091ED0453
:10437000009769F48B819C819093ED048093EC0409
:104380008091EF048130A9F40E948A2812C08091A4
:10439000F404882371F4E091EC04F091ED04968923
:1043A0008E85891730F08B819C819093ED048093EA
:1043B000EC04EB81FC8196898091F204891728F442
:1043C000EB81FC8186898093F2048091F9048F5FF0
:1043D0008093F904EB81FC8196898091F30489171D
:1043E00028F4EB81FC8186898093F304EB81FC81C6
:1043F0008689282F30E0C901880F991F880F991FDF
:10440000880F991F820F931FAC0146505B4F8B8121
:104410009C819C012E5F3F4FCA01B9010E94DA18AE
:1044200081E08D830F900FBE02C08FEF8D838D8151
:10443000813071F48091F404882351F0E091EC0410
:10444000F091ED0496898E85981710F40E949A1BBE
:104450008D8164960FB6F894DEBF0FBECDBFCF91AD
:10446000DF911F910F91FF90EF90DF90CF90BF9061
:10447000AF900895DF93CF9300D000D000D0CDB798
:10448000DEB79C838B830FB6F8940F922091EC04D7
:104490003091ED048B819C818217930711F41C826B
:1044A0001B828B819C81009739F48091EC04909160
:1044B000ED049E838D8304C08B819C819E838D83BC
:1044C0008D819E819A83898389819A8102960E9437
:1044D0009219E981FA8184899589009729F0898167
:1044E0009A810C960E94921989819A819C012E5F73
:1044F0003F4F8DE395E0B9010E94DA188091EE04F8
:104500008F5F8093EE048091F9048F5F8093F904AC
:104510000F900FBE8091F404882331F08B819C8131
:10452000009711F40E949A1B26960FB6F894DEBFEE
:104530000FBECDBFCF91DF910895DF93CF93CDB75D
:10454000DEB728970FB6F894DEBF0FBECDBF9E83AF
:104550008D8378876F8319820E94E824ED81FE8124
:10456000208131818F819885820F931F9C838B835B
:10457000ED81FE81208131818091F0049091F104E0
:1045800082179307A8F4ED81FE81208131818B8110
:104590009C818217930700F52091F0043091F1047B
:1045A0008B819C8128173907B8F481E0898314C076
:1045B000ED81FE81208131818B819C81821793075F
:1045C00048F02091F0043091F1048B819C812817F0
:1045D000390710F481E08983ED81FE818B819C8114
:1045E000918380838981882359F08091EC04909194
:1045F000ED0402960E9492198B819C810E940929E8
:104600000E94F4248A838A81882311F40E949A1BD1
:1046100028960FB6F894DEBF0FBECDBFCF91DF91C5
:104620000895DF93CF9300D000D00F92CDB7DEB7BF
:104630009D838C8319828C819D810097D1F00E948B
:10464000E8242091F0043091F1048C819D81820F47
:10465000931F9B838A838091EC049091ED040296D2
:104660000E9492198A819B810E9409290E94F42448
:1046700089838981882311F40E949A1B0F900F90DF
:104680000F900F900F90CF91DF910895DF93CF930C
:1046900000D000D000D0CDB7DEB79C838B830FB69F
:1046A000F8940F922091EC043091ED048B819C8161
:1046B0008217930711F41C821B828B819C810097C7
:1046C00039F48091EC049091ED049E838D8304C0B5
:1046D0008B819C819E838D838D819E819A8389832A
:1046E00089819A8102960E949219E981FA818489CE
:1046F0009589009729F089819A810C960E949219D8
:1047000089819A819C012E5F3F4F86E495E0B90133
:104710000E94DA180F900FBE8B819C810097A1F444
:104720008091F404882319F00E949A1B0DC0909187
:1047300046058091EF04981729F41092ED04109229
:10474000EC0402C00E94882626960FB6F894DEBFBD
:104750000FBECDBFCF91DF910895DF93CF9300D0EF
:1047600000D00F92CDB7DEB79D838C831B828C81E6
:104770009D819A838983E981FA818285938525E0E9
:104780008634920781F4E981FA818489958925E04C
:104790008433920741F0E981FA81848995890097F1
:1047A00011F481E08B838B810F900F900F900F900D
:1047B0000F90CF91DF910895DF93CF9300D000D079
:1047C000CDB7DEB79C838B838B819C819A83898351
:1047D00089819A81009709F44CC02091EC043091B2
:1047E000ED0489819A818217930709F442C00FB6BC
:1047F000F8940F9289819A810E94AD238130B9F596
:1048000089819A8102960E949219E981FA8196899A
:104810008091F304891728F4E981FA8186898093CD
:10482000F304E981FA818689282F30E0C901880FD5
:10483000991F880F991F880F991F820F931FAC0132
:1048400046505B4F89819A819C012E5F3F4FCA0180
:10485000B9010E94DA18E981FA819689E091EC04A5
:10486000F091ED048689981710F00E949A1B0F9022
:104870000FBE0F900F900F900F90CF91DF91089582
:10488000DF93CF9300D000D00F92CDB7DEB79D83DA
:104890008C831B828C819D819A83898389819A81F3
:1048A0000E94AD23813009F047C08091F504882330
:1048B000C9F5E981FA819689E091EC04F091ED0463
:1048C00086891B82981710F081E08B8389819A81F9
:1048D00002960E949219E981FA8196898091F304E7
:1048E000891728F4E981FA8186898093F304E981A4
:1048F000FA818689282F30E0C901880F991F880F17
:10490000991F880F991F820F931FAC0146505B4F70
:1049100089819A819C012E5F3F4FCA01B9010E9493
:10492000DA180AC089819A819C01245F3F4F84E391
:1049300095E0B9010E94DA188B810F900F900F90CB
:104940000F900F90CF91DF910895AF92BF92CF92C9
:10495000DF92EF92FF920F93DF93CF930F92CDB739
:10496000DEB720E630E089E298E2B9014AEF50E094
:1049700020E030E000E0EE24FF24CC24DD24AA2453
:10498000BB240E944D2189838981813051F4F894A0
:1049900081E08093F4041092F1041092F0040E94DC
:1049A0005E1B0F90CF91DF910F91FF90EF90DF9002
:1049B000CF90BF90AF900895DF93CF93CDB7DEB780
:1049C000F8941092F4040E94931BCF91DF91089504
:1049D000DF93CF93CDB7DEB78091F5048F5F8093DF
:1049E000F504CF91DF910895DF93CF9300D000D0ED
:1049F000CDB7DEB71A820FB6F8940F928091F50406
:104A000081508093F5048091F504882309F06CC0EF
:104A10008091EF04882309F467C0198241C0E091B6
:104A20003905F0913A05868197819C838B838B8130
:104A30009C810C960E9492198B819C8102960E9407
:104A40009219EB81FC8196898091F304891728F4EF
:104A5000EB81FC8186898093F304EB81FC8186895C
:104A6000282F30E0C901880F991F880F991F880FE0
:104A7000991F820F931F86509B4F2B813C812E5F85
:104A80003F4FB9010E94DA18EB81FC819689E091D1
:104A9000EC04F091ED048689981710F081E0898389
:104AA00080913405882309F0BACF8091F6048823D9
:104AB00071F007C00E94B3258091F6048150809365
:104AC000F6048091F6048823A9F781E0898389811F
:104AD000813021F08091F704813031F481E08A83C4
:104AE0001092F7040E949A1B0F900FBE8A810F90BC
:104AF0000F900F900F90CF91DF910895DF93CF9398
:104B000000D0CDB7DEB70FB6F8940F928091F004C5
:104B10009091F1049A8389830F900FBE89819A81C5
:104B20000F900F90CF91DF910895DF93CF9300D036
:104B30000F92CDB7DEB719828091F0049091F10405
:104B40009B838A838A819B810F900F900F90CF91D6
:104B5000DF910895DF93CF93CDB7DEB78091EF0457
:104B6000CF91DF910895DF93CF9300D000D000D094
:104B7000CDB7DEB78091F504882309F0BBC08091E2
:104B8000F0049091F10401969093F1048093F00465
:104B90008091F0049091F1040097D1F58091300557
:104BA000909131059C838B838091320590913305E0
:104BB00090933105809330058B819C8190933305D0
:104BC000809332058091F8048F5F8093F804E09120
:104BD0003005F09131058081882339F48FEF9FEF04
:104BE0009093800080937F0013C0E0913005F09196
:104BF00031050580F681E02D868197819E838D8326
:104C0000ED81FE81828193819093800080937F006B
:104C10002091F0043091F10480917F009091800008
:104C20002817390708F46BC0E0913005F091310581
:104C30008081882339F48FEF9FEF909380008093D9
:104C40007F005DC0E0913005F09131050580F6816F
:104C5000E02D868197819E838D83ED81FE81828107
:104C600093819A8389832091F0043091F1048981A2
:104C70009A812817390738F489819A8190938000A6
:104C800080937F003CC08D819E8102960E94921984
:104C9000ED81FE8184899589009729F08D819E811F
:104CA0000C960E949219ED81FE8196898091F30401
:104CB000891728F4ED81FE8186898093F304ED81C4
:104CC000FE818689282F30E0C901880F991F880F3F
:104CD000991F880F991F820F931FAC0146505B4F9D
:104CE0008D819E819C012E5F3F4FCA01B9010E94B8
:104CF000DA189ACF8091F6048F5F8093F604269697
:104D00000FB6F894DEBF0FBECDBFCF91DF910895EF
:104D1000DF93CF9300D0CDB7DEB78091F504882321
:104D200049F081E08093F70454C08091F3048150EE
:104D30008093F3048091F304282F30E0C901880F99
:104D4000991F880F991F880F991F820F931FFC01CD
:104D5000E650FB4F8081882341F38091F304282F94
:104D600030E0C901880F991F880F991F880F991F7C
:104D7000820F931F86509B4F9A838983E981FA8122
:104D80000180F281E02D82819381E981FA81928311
:104D90008183E981FA812181328189819A81039617
:104DA0002817390759F4E981FA810180F281E02D51
:104DB00082819381E981FA8192838183E981FA81F9
:104DC0000180F281E02D868197819093ED0480939C
:104DD000EC040F900F90CF91DF910895DF93CF9364
:104DE00000D000D000D0CDB7DEB79C838B837E830C
:104DF0006D834B815C818091EC049091ED049C016A
:104E0000245F3F4FCA01B9010E9426198091EC042A
:104E10009091ED0402960E9492198D819E812FEF50
:104E20008F3F920769F48091EC049091ED049C010E
:104E30002E5F3F4F86E495E0B9010E94DA180EC05C
:104E40002091F0043091F1048D819E81820F931F97
:104E50009A83898389819A810E94092926960FB6AF
:104E6000F894DEBF0FBECDBFCF91DF910895DF93E1
:104E7000CF9300D000D00F92CDB7DEB79D838C8347
:104E8000EC81FD810580F681E02D868197819B83F1
:104E90008A838A819B810C960E9492198091F504E5
:104EA000882361F58A819B8102960E949219EA818A
:104EB000FB8196898091F304891728F4EA81FB81AC
:104EC00086898093F304EA81FB818689282F30E06C
:104ED000C901880F991F880F991F880F991F820F8A
:104EE000931FAC0146505B4F8A819B819C012E5FD2
:104EF0003F4FCA01B9010E94DA180AC08A819B811A
:104F00009C01245F3F4F84E395E0B9010E94DA18C9
:104F1000EA81FB819689E091EC04F091ED048689A9
:104F2000981718F081E0898301C0198289810F9058
:104F30000F900F900F900F90CF91DF910895DF9316
:104F4000CF9300D0CDB7DEB79A8389838091F804E0
:104F5000E981FA8180838091F0049091F104E981E4
:104F6000FA81928381830F900F90CF91DF91089502
:104F7000DF93CF9300D000D00F92CDB7DEB79B83E5
:104F80008A837D836C830FB6F8940F92EC81FD8148
:104F9000808191812FEF8F3F920711F4198244C0D5
:104FA000EA81FB8190818091F804981771F0EA8181
:104FB000FB81218132818091F0049091F10482176C
:104FC000930718F081E089832FC02091F00430917D
:104FD000F104EA81FB8181819281281B390BEC81EC
:104FE000FD818081918128173907E0F4EC81FD81F2
:104FF00040815181EA81FB81218132818091F004DD
:105000009091F104B901681B790BCB01840F951FB6
:10501000EC81FD81918380838A819B810E949F27FF
:10502000198202C081E089830F900FBE89810F90A1
:105030000F900F900F900F90CF91DF910895DF9315
:10504000CF93CDB7DEB781E08093F704CF91DF91A6
:105050000895DF93CF9300D0CDB7DEB79A838983CD
:105060000E94CB28FDCF0F931F93DF93CF93CDB733
:10507000DEB729970FB6F894DEBF0FBECDBF9A8377
:1050800089837C836B834D833F832E8319870887B5
:1050900089819A8149962B813C81B90148E050E091
:1050A0000E94AB2AE981FA8110A28D81843010F030
:1050B00083E08D83E981FA818D81868B89819A8154
:1050C00002960E94CA1889819A810C960E94CA1879
:1050D000E981FA8189819A81918780878D81282F42
:1050E00030E084E090E0821B930BE981FA819587A0
:1050F0008487E981FA8189819A81938B828B2996B1
:105100000FB6F894DEBF0FBECDBFCF91DF911F91D8
:105110000F910895DF93CF930F92CDB7DEB7198229
:1051200013C08981282F30E0C901880F991F880F8B
:10513000991F880F991F820F931F86509B4F0E94C3
:10514000A01889818F5F89838981843050F38EE133
:1051500095E00E94A01887E295E00E94A01884E3E1
:1051600095E00E94A0188DE395E00E94A01886E4C7
:1051700095E00E94A0188EE195E090933105809310
:10518000300587E295E090933305809332050F90C8
:10519000CF91DF910895DF93CF9300D00F92CDB7D9
:1051A000DEB78091EE04882371F10E94E82480919B
:1051B0003D051B82882311F481E08B830E94F42437
:1051C0008B81882301F50FB6F8940F92E091420588
:1051D000F0914305868197819A83898389819A8199
:1051E00002960E9492198091EF0481508093EF04FF
:1051F0008091EE0481508093EE040F900FBE898160
:105200009A810E94A2290F900F900F90CF91DF9169
:105210000895DF93CF9300D0CDB7DEB79A8389830B
:10522000E091EC04F091ED0489819A81938382836B
:105230002091F0043091F10489819A8182179307BB
:1052400070F480913205909133052091EC043091F7
:10525000ED042E5F3F4FB9010E9426191EC04091F8
:105260003005509131058091EC049091ED049C0142
:105270002E5F3F4FCA01B9010E94261920917F007D
:105280003091800089819A818217930730F4898157
:105290009A819093800080937F000F900F90CF9120
:1052A000DF910895DF93CF93CDB7DEB728970FB680
:1052B000F894DEBF0FBECDBF9C838B837E836D834E
:1052C00081E290E00E9434189A83898389819A81CF
:1052D000009769F18D819E81009739F48B819C81C3
:1052E0000E94341898878F8304C08D819E8198878F
:1052F0008F83E981FA818F819885908F878BE981EF
:10530000FA818789908D009739F489819A810E946A
:105310007A181A8219820BC0E981FA818789908DE7
:105320002B813C8165EA70E0A9010E94A42A898151
:105330009A8128960FB6F894DEBF0FBECDBFCF91ED
:10534000DF910895DF93CF9300D0CDB7DEB79A8376
:105350008983E981FA818789908D0E947A188981F1
:105360009A810E947A180F900F90CF91DF91089543
:10537000DF93CF93CDB7DEB780914F05982F8F5F26
:1053800080934F05892F0E94EF0F80914F058A303F
:1053900011F410924F0588EE93E00E941123ECCF98
:1053A000DF93CF93CDB7DEB720915005822F90E0E9
:1053B000FC01EF57FF4F9081822F8F5F8093500544
:1053C000892F0E945E14809150058A3069F71092EF
:1053D0005005EACFDF93CF93CDB7DEB783E060E02F
:1053E0000E94710E80ED97E00E941123F7CFDF93AA
:1053F000CF93CDB7DEB783E061E00E94710E80ED00
:1054000097E00E941123F7CFDF93CF93CDB7DEB79C
:1054100083E062E00E94710E88EB9BE00E94112302
:10542000F7CFAF92BF92CF92DF92EF92FF920F939E
:10543000DF93CF93CDB7DEB783E060E041E00E9419
:10544000710C83E061E041E00E94710C83E062E056
:1054500041E00E94710C8AEE99E225E630E0B90144
:1054600044E650E020E030E000E0EE24FF24CC24CD
:10547000DD24AA24BB240E944D2187EF99E22BE66C
:1054800030E0B90144E650E020E030E001E0EE24F5
:10549000FF24CC24DD24AA24BB240E944D2184E0D7
:1054A0009AE221E730E0B90144E650E020E030E044
:1054B00002E0EE24FF24CC24DD24AA24BB240E9495
:1054C0004D210E94A524FFCF2F923F924F925F92D1
:1054D0006F927F928F929F92AF92BF92CF92DF9204
:1054E000EF92FF920F931F93CF93DF93CDB7DEB769
:1054F000CA1BDB0B0FB6F894DEBF0FBECDBF0994FD
:105500002A88398848885F846E847D848C849B8453
:10551000AA84B984C884DF80EE80FD800C811B8161
:10552000AA81B981CE0FD11D0FB6F894DEBF0FBE90
:10553000CDBFED010895FB01DC0102C001900D9289
:1055400041505040D8F70895DC0101C06D9341509F
:105550005040E0F70895FB01DC014150504048F015
:1055600001900D920020C9F701C01D92415050409A
:10557000E0F70895FB019F01E8944230C4F0453202
:10558000B4F44A3029F497FB1EF4909581959F4F0F
:10559000642F77270E94EB2A805D8A330CF0895DA7
:1055A0008193CB010097A1F716F45DE2519310822D
:1055B000C9010C94DB2ADC01FC01672F7191772370
:1055C000E1F7329704C07C916D9370836291AE17BE
:1055D000BF07C8F30895AA1BBB1B51E107C0AA1F50
:1055E000BB1FA617B70710F0A61BB70B881F991F84
:1055F0005A95A9F780959095BC01CD010895F8942E
:02560000FFCFDA
:1056020049444C45004C45445F31004C45445F32AF
:10561200004C45445F33000000000000000000FF22
:10562200FF77656C636F6D6500000000000000008D
:1056320000000000004849000000000000000000D7
:0A564200000000000000000000005E
:00000001FF
