:100000000C942A000C9447000C9447000C94470071
:100010000C9447000C9447000C9447000C9424095E
:100020000C9447000C9447000C941F010C94F800AA
:100030000C9447000C9447000C9447000C94470024
:100040000C9447000C9447000C9447000C94470014
:100050000C94470011241FBECFE5D8E0DEBFCDBF12
:1000600010E0A0E6B0E0EEEEF5E202C005900D92E1
:10007000A23AB107D9F715E0A2EAB0E001C01D929B
:10008000AD34B107E1F70E9410120C94F5120C94F4
:1000900000000F93CF93DF93EC01E22FF0E0DF013C
:1000A00093E0AA0FBB1F9A95E1F7AE55BF4F8D9114
:1000B0009C911197892BA1F41196DC93CE9383E048
:1000C000EE0FFF1F8A95E1F7EC55FF4F40835183F8
:1000D0006283738316960C93169781E017968C9320
:1000E000DF91CF910F9108951F93CF93DF9380916C
:1000F000BA009091BB00A091BC00B091BD000196E8
:10010000A11DB11D8093BA009093BB00A093BC00C9
:10011000B093BD00C2EAD0E011E01F83E881F9810D
:10012000309751F08E81882329F48A8181508E8303
:10013000099502C081508E83289680E0CA3BD8077B
:1001400061F7DF91CF911F910895E82FF0E023E050
:10015000EE0FFF1F2A95E1F7EE55FF4F81E08783F1
:100160000895E82FF0E033E0EE0FFF1F3A95E1F736
:10017000EE55FF4F17820895E82FF0E043E0EE0FB1
:10018000FF1F4A95E1F7EE55FF4F11821082089547
:1001900084E790E00E94F3008FE00E94EC000E9450
:1001A000D4000E944601089583B7887F83BF83B738
:1001B000856083BF83B78F7B83BF83B7886083BF2E
:1001C00089B7826089BF83B78F7D83BF83B78F7EF6
:1001D00083BF089582BF08958CBF089590934A0508
:1001E00080934905089590934A05809349050895A1
:1001F0001F920F920FB60F9211242F933F934F939C
:100200005F936F937F938F939F93AF93BF93EF937E
:10021000FF93E0914905F0914A050995FF91EF910F
:10022000BF91AF919F918F917F916F915F914F910E
:100230003F912F910F900FBE0F901F9018951F9216
:100240000F920FB60F9211242F933F934F935F930A
:100250006F937F938F939F93AF93BF93EF93FF938E
:10026000E0914905F0914A050995FF91EF91BF9101
:10027000AF919F918F917F916F915F914F913F913E
:100280002F910F900FBE0F901F9018958FB7806819
:100290008FBF08958FB78F778FBF0895382F88301D
:1002A00008F07AC0613029F1613038F0623009F429
:1002B0003CC0633009F070C053C0413059F42AB3D8
:1002C00081E090E002C0880F991F3A95E2F7282B51
:1002D0002ABB60C0442309F05FC02AB381E090E0EC
:1002E00002C0880F991F3A95E2F7809582238ABB56
:1002F00051C0413059F427B381E090E002C0880F2B
:10030000991F3A95E2F7282B27BB44C0442309F0F4
:1003100043C027B381E090E002C0880F991F3A954F
:10032000E2F78095822387BB35C0413059F424B36E
:1003300081E090E002C0880F991F3A95E2F7282BE0
:1003400024BB28C0442341F524B381E090E002C0DF
:10035000880F991F3A95E2F78095822384BB1AC0D3
:10036000413059F421B381E090E002C0880F991F19
:100370003A95E2F7282B21BB0DC0442369F421B341
:1003800081E090E002C0880F991F3A95E2F78095CE
:10039000822381BB81E0089580E00895982F862F05
:1003A00081508E3F90F0913049F0913028F092309A
:1003B00039F0933051F406C06ABB05C067BB03C077
:1003C00064BB01C061BB81E0089580E00895382FCF
:1003D000883008F07AC0613029F1613038F062303D
:1003E00009F43CC0633009F070C053C0413059F487
:1003F0002BB381E090E002C0880F991F3A95E2F795
:10040000282B2BBB60C0442309F05FC02BB381E0D5
:1004100090E002C0880F991F3A95E2F780958223F9
:100420008BBB51C0413059F428B381E090E002C049
:10043000880F991F3A95E2F7282B28BB44C0442324
:1004400009F043C028B381E090E002C0880F991FF3
:100450003A95E2F78095822388BB35C0413059F444
:1004600025B381E090E002C0880F991F3A95E2F72A
:10047000282B25BB28C0442341F525B381E090E01B
:1004800002C0880F991F3A95E2F78095822385BBB9
:100490001AC0413059F422B381E090E002C0880FC5
:1004A000991F3A95E2F7282B22BB0DC0442369F42B
:1004B00022B381E090E002C0880F991F3A95E2F7DD
:1004C0008095822382BB81E0089580E00895813089
:1004D00051F0813030F0823041F0833049F080E0DB
:1004E00008956BBB03C068BB01C065BB81E0089584
:1004F00062BB81E00895282FFA018830E8F441308A
:100500005105D1F0613049F0613028F0623039F0A6
:10051000633091F406C089B305C086B303C083B3CA
:1005200001C080B390E002C0959587952A95E2F7C7
:100530008170808381E0089580E00895982F853050
:1005400008F047C06130B9F0613030F0623011F12D
:10055000633009F03EC02DC08BB32FE030E002C005
:10056000220F331F9A95E2F7209528232BBB8BB3DC
:10057000842B8BBB2CC088B32FE030E002C0220F4D
:10058000331F9A95E2F72095282328BB88B3842B44
:1005900088BB1DC085B32FE030E002C0220F331F9F
:1005A0009A95E2F72095282325BB85B3842B85BB3C
:1005B0000EC082B32FE030E002C0220F331F9A95A5
:1005C000E2F72095282322BB82B3842B82BB81E0F3
:1005D000089580E00895813049F0813028F082301C
:1005E00039F0833041F406C06ABB089567BB0895B3
:1005F00064BB089561BB0895813049F0813028F0D3
:10060000823039F0833041F406C06BBB089562BB81
:10061000089565BB089562BB08954130B1F58130FE
:1006200099F0813030F08230D1F0833009F067C02A
:1006300021C02AB381E090E002C0880F991F6A951B
:10064000E2F7282B2ABB089527B381E090E002C08F
:10065000880F991F6A95E2F7282B27BB089524B3CA
:1006600081E090E002C0880F991F6A95E2F7282B7D
:1006700024BB089521B381E090E002C0880F991F48
:100680006A95E2F7282B21BB08954423C1F58130F8
:1006900099F0813028F08230D9F0833081F524C080
:1006A0002AB381E090E002C0880F991F6A95E2F7B3
:1006B000809582238ABB089527B381E090E002C031
:1006C000880F991F6A95E2F78095822387BB08956A
:1006D00024B381E090E002C0880F991F6A95E2F789
:1006E0008095822384BB089521B381E090E002C00D
:1006F000880F991F6A95E2F78095822381BB089540
:100700004130B1F5813099F0813030F08230D1F054
:10071000833009F067C021C02BB381E090E002C0B4
:10072000880F991F6A95E2F7282B2BBB089528B3F1
:1007300081E090E002C0880F991F6A95E2F7282BAC
:1007400028BB089525B381E090E002C0880F991F6F
:100750006A95E2F7282B25BB089522B381E090E04B
:1007600002C0880F991F6A95E2F7282B22BB0895D3
:100770004423C1F5813099F0813028F08230D9F0DE
:10078000833081F524C02BB381E090E002C0880F54
:10079000991F6A95E2F7809582238BBB089528B351
:1007A00081E090E002C0880F991F6A95E2F780957A
:1007B000822388BB089525B381E090E002C0880FB2
:1007C000991F6A95E2F78095822385BB089522B32D
:1007D00081E090E002C0880F991F6A95E2F780954A
:1007E000822382BB0895813091F0813028F08230DD
:1007F000C9F0833061F521C02BB381E090E002C0E5
:10080000880F991F6A95E2F728272BBB089528B314
:1008100081E090E002C0880F991F6A95E2F72827CF
:1008200028BB089525B381E090E002C0880F991F8E
:100830006A95E2F7282725BB089522B381E090E06E
:1008400002C0880F991F6A95E2F7282722BB0895F6
:10085000813049F0813028F0823039F08330B1F4B2
:100860000DC089B303C086B301C083B390E002C05A
:10087000959587956A95E2F78170089580B390E029
:1008800002C0959587956A95E2F781700895853045
:1008900009F1863060F48230B9F0833018F4813089
:1008A00089F40EC0833091F0843061F411C0873038
:1008B000A9F0873088F0883099F0893019F412C097
:1008C0006CE011C06EE70FC066EB0DC06EE90BC0A7
:1008D0006CEC09C06AED07C06AEF05C06EE003C0AA
:1008E0006FEF01C06EED80E00E94FC02089580E091
:1008F0006FEF0E94EB0280E06FEF0E94FC02089510
:10090000882319F46093BE000895813019F4605C67
:100910006093BE000895CF92DF92EF92FF921F93F3
:10092000182F83E061E040E00E948003412F441FC4
:100930004427441F83E067E00E948003412F4295D3
:1009400046954695417083E066E00E948003412F02
:1009500042954695417083E065E00E948003412FF7
:100960004295417083E064E00E94800383E061E08F
:1009700041E00E94800390EDC92E97E0D92EC60178
:100980000197F1F783E061E040E00E94800380E698
:10099000E82E8AEEF82EC7010197F1F7412F469510
:1009A00046954695417083E067E00E948003412FA1
:1009B00046954695417083E066E00E948003412F92
:1009C0004695417083E065E00E948003117083E0EA
:1009D00064E0412F0E94800383E061E041E00E94D7
:1009E0008003C6010197F1F783E061E040E00E94D7
:1009F0008003C7010197F1F71F91FF90EF90DF90FF
:100A0000CF9008951F93182F83E062E041E00E9489
:100A10008003812F0E948B041F910895CF93DF9351
:100A2000EC0102C00E94020589918823D9F7DF9169
:100A3000CF9108950F931F93DF93CF93CDB7DEB778
:100A4000A0970FB6F894DEBF0FBECDBF8E010F5F2B
:100A50001F4FB8014AE050E00E94B012C8010E9446
:100A60000E05A0960FB6F894DEBF0FBECDBFCF9196
:100A7000DF911F910F9108951F93182F83E062E07B
:100A800040E00E948003812F0E948B041F910895F3
:100A900081E00E943C0508950F931F9380E69AEE33
:100AA0000197F1F783E062E041E00E940D0383E0EB
:100AB00061E041E00E940D0383E067E041E00E94B5
:100AC0000D0383E066E041E00E940D0383E065E0F2
:100AD00041E00E940D0383E064E041E00E940D03C9
:100AE00088E20E943C0500EA1FE0C8010197F1F787
:100AF0008CE00E943C05C8010197F1F781E00E945B
:100B00003C05C8010197F1F786E00E943C051F9162
:100B10000F910895CF93DF93EC018091BF0088235C
:100B200041F48981688141E00E94E70181E080937E
:100B3000BF008091BF00813039F48981688140E035
:100B40000E94E7011092BF00DF91CF910895FC0150
:100B50008181608140E00E94E7010895FC0181816C
:100B6000608141E00E94E7010895FC01818160817C
:100B700041E00E944E010895EF92FF920F931F9360
:100B8000FC010580F681E02DE680F7808701045F97
:100B90001F4FC8010E94230881EF90E0B8010E9416
:100BA000C50720E0E091C000F091C100D701569642
:100BB0009C918689981708F021E0822F1F910F9150
:100BC000FF90EF900895FF920F931F93CF93DF93C1
:100BD00099E0F92E21C0F894E091F600F091F70029
:100BE00006811781C8010C960E9423087894E801B9
:100BF0002296CE010E942308F80196898091C200B6
:100C0000891710F49093C2009F9DC001112487534F
:100C10009F4FBE010E94C5078091F1008823D9F63D
:100C20000E94870C2091C3003091C400821B930B5B
:100C30009093C6008093C50089E0F82E53C00196BA
:100C40009093C8008093C700215030403093C60075
:100C50002093C500892B09F03EC02091ED00309112
:100C6000EE008091EF009091F0009093EE00809361
:100C7000ED003093F0002093EF002DC00580F68149
:100C8000E02DC681D7812091C7003091C8008A81AC
:100C90009B812817390730F1F8948E010E5F1F4FA2
:100CA000C8010E9423088C899D89892B21F0CE01DF
:100CB0000C960E94230878949E898091C20089171F
:100CC00010F49093C2009F9DC001112487539F4F41
:100CD000B8010E94C507E091ED00F091EE0080811F
:100CE000882361F62091C5003091C6008091C7002D
:100CF0009091C8002115310509F0A1CF9093C4004F
:100D00008093C3009091C20029E006C0992319F492
:100D10001092C20032C09150929FD0011124A7536B
:100D2000BF4F8C91882391F39093C2001196ED915F
:100D3000FC9112970280F381E02D1296FC93EE93C2
:100D40001197CD010396E817F90731F48281938159
:100D500012969C938E9311971196ED91FC91129798
:100D60000680F781E02DF093C100E093C000208160
:100D70003181CF016789F9010995DF91CF911F91E9
:100D80000F91FF9008950F931F93CF93DF93EB0183
:100D90000091C7001091C800080F191F8091C00072
:100DA0009091C10002960E942308E091C000F0914A
:100DB000C100138302838091C7009091C800BF01D6
:100DC0006E5F7F4F0817190728F48091EF0090910C
:100DD000F00004C08091ED009091EE000E94EE07BB
:100DE000209749F06091C0007091C100645F7F4F0F
:100DF000CE010E94EE07DF91CF911F910F910895D0
:100E0000AF92BF92CF92DF92EF92FF920F931F9318
:100E1000CF93DF936C01B62EA42E8AE190E00E945E
:100E20008A07EC01009711F48FEF59C08091C00040
:100E30009091C100892B21F5D093C100C093C000CF
:100E400089EC90E00E94B10782ED90E00E94B1072A
:100E50002BEDE22E20E0F22EC7010E94B10704EE36
:100E600010E0C8010E94B10781EF90E00E94B10735
:100E7000F092EE00E092ED001093F0000093EF008E
:100E8000EB2CBB2011F0EE24E394198E188EEE8A21
:100E9000AF8AFE01C192D1928F01CF010E94C1079A
:100EA000CE010C960E94C107D987C887DB8BCA8BFD
:100EB00084E090E08E1991099D878C879E898091AE
:100EC000C200891710F49093C20089E0989FC00176
:100ED000112487539F4FB8010E94C50781E0DF911D
:100EE000CF911F910F91FF90EF90DF90CF90BF9027
:100EF000AF90089508951092FB001092FA000895A3
:100F000028EE33E08091FA009091FB00281B390B0A
:100F1000C90108950F931F93CF93DF938C010E9413
:100F2000810C8091FA009091FB009801280F391FE5
:100F300043E0283E340758F48217930740F4EC014D
:100F4000C450DF4F3093FB002093FA0002C0C0E092
:100F5000D0E00E94BE0ECE01DF91CF911F910F9184
:100F60000895FC019C012D5F3F4F328321838FEF59
:100F70009FEF948383833683258330872783108272
:100F80000895FC01118610860895CF93DF93AC017C
:100F9000DB01EC0129813A81F90182819381139669
:100FA0009C938E93129789819A8115969C938E9328
:100FB00014970280F381E02D75836483E9017B83BC
:100FC0006A83FA017283618319965C934E93189732
:100FD00080818F5F8083DF91CF910895CF93DF93DE
:100FE0009C01EB01488159818FEF4F3F580721F455
:100FF000F901A781B08510C0D901139604C01296DB
:101000000D90BC91A02D1296ED91FC9113978081CB
:1010100091814817590798F71296ED91FC91139713
:10102000FB83EA83D583C483BD83AC831396DC93AF
:10103000CE93129739872887F90180818F5F80834B
:10104000DF91CF910895CF93DF93DC011296ED915C
:10105000FC91139714968D919C9115979583848399
:101060001496CD91DC911597FB83EA831896ED9148
:10107000FC911997818192818A179B0711F4D28381
:10108000C18319961C921E9218978081815080838B
:10109000DF91CF910895FC0191E1908322E22293A8
:1010A00083E3829362937293129280E88293129206
:1010B00082E0829383E0829384E0829385E082934E
:1010C00086E0829387E0829388E0829389E082932E
:1010D00080E18293929382E1829383E1829384E11F
:1010E000829385E1829386E1829387E1829388E10E
:1010F000829389E1829380E2829381E282932293B8
:1011000083E282934293529386E2829387E28293B0
:1011100088E2829389E2829380E3829381E38293DF
:101120003197CF0108951BBC8CE78ABD8BE08EBD43
:1011300089B7806189BFA091E404B091E504CD91A5
:10114000CDBFDD91DEBFFF91EF91DF91CF91BF91D8
:10115000AF919F918F917F916F915F914F913F914F
:101160002F911F910F91FF90EF90DF90CF90BF9044
:10117000AF909F908F907F906F905F904F903F9037
:101180002F901F900F900FBE0F90089581E008954B
:1011900008950F920FB6F8940F921F9211242F9278
:1011A0003F924F925F926F927F928F929F92AF92F7
:1011B000BF92CF92DF92EF92FF920F931F932F93E4
:1011C0003F934F935F936F937F938F939F93AF93CF
:1011D000BF93CF93DF93EF93FF93A091E404B0917B
:1011E000E5040DB60D920EB60D920E94690D0E9497
:1011F0009B0CA091E404B091E504CD91CDBFDD91AD
:10120000DEBFFF91EF91DF91CF91BF91AF919F91A1
:101210008F917F916F915F914F913F912F911F918E
:101220000F91FF90EF90DF90CF90BF90AF909F9085
:101230008F907F906F905F904F903F902F901F9076
:101240000F900FBE0F9008950E94C90818950F9235
:101250000FB6F8940F921F9211242F923F924F9243
:101260005F926F927F928F929F92AF92BF92CF9236
:10127000DF92EF92FF920F931F932F933F934F9321
:101280005F936F937F938F939F93AF93BF93CF930E
:10129000DF93EF93FF93A091E404B091E5040DB6C2
:1012A0000D920EB60D920E949B0CA091E404B09199
:1012B000E504CD91CDBFDD91DEBFFF91EF91DF91D0
:1012C000CF91BF91AF919F918F917F916F915F91DE
:1012D0004F913F912F911F910F91FF90EF90DF90D1
:1012E000CF90BF90AF909F908F907F906F905F90C6
:1012F0004F903F902F901F900F900FBE0F9008952A
:10130000FC010FB6F8940F92828D0F900FBE0895D6
:10131000FC01828D0895FC01828D90E0882309F400
:1013200091E0892F0895FC01928D20E0838D98171C
:1013300009F421E0822F08950F931F938C01FC0183
:10134000808191810E947A07C8010E947A071F91CB
:101350000F9108950F931F93CF93DF93EC01FB013F
:101360008A018A8D882381F148815981411551056F
:10137000A9F08C8D2E813F81280F311D3F832E8354
:101380008A819B812817390710F05F834E834C8D2B
:101390006E817F81CF0150E00E9491128A8D815031
:1013A0008A8F8D8D8F3F69F48885882361F0CE0107
:1013B00008960E942A0D882331F081E0F80180838D
:1013C00003C08F5F8D8F81E0DF91CF911F910F91CF
:1013D0000895CF93DF93EC01842F4C8D4423A1F12A
:1013E0008823B1F48C819D8150E00E9491128C8DF4
:1013F0002C813D81280F311D3D832C838A819B8167
:101400002817390708F1888199819D838C831CC036
:101410008E819F8150E00E9491128C8D90E0442734
:101420005527481B590B8E819F81840F951F9F83E1
:101430008E83288139818217930730F48A819B81BA
:10144000840F951F9F838E838A8D8F5F8A8FDF9194
:10145000CF9108950F931F93CF93DF93EC018A01EF
:101460009A8D8B8D981710F080E017C0CE01422F17
:101470000E94E9098E8D8F3F69F48989882361F084
:10148000CE0141960E942A0D882331F081E0F801B7
:10149000808303C08F5F8E8F81E0DF91CF911F919A
:1014A0000F9108950F931F93CF93DF93EC010FB625
:1014B000F8940F928C010F5E1F4F0DC0898988230D
:1014C00069F0C8010E942A0D882311F00E94260DA0
:1014D0008E8D81508E8F8E8D181684F38FEF8E8FA8
:1014E0000F900FBE0FB6F8940F928E01085F1F4F3A
:1014F0000DC08885882369F0C8010E942A0D8823C1
:1015000011F00E94260D8D8D81508D8F8D8D1816B6
:1015100084F38FEF8D8F0F900FBEDF91CF911F91CE
:101520000F9108957F928F929F92AF92BF92CF9228
:10153000DF92EF92FF920F931F93DF93CF9300D030
:1015400000D00F92CDB7DEB78C01962E872E5D832B
:101550004C83722E91E1C92ED12CC00ED11E20E0F9
:101560007E010894E11CF11C84E0A82EB12CAC0E85
:10157000BD1E01C021E00FB6F8940F92F801828DD4
:10158000882309F43EC0E680F780408151814115EF
:101590005105B1F0848D9701280F311D37832683C3
:1015A000828193812817390710F057834683F80109
:1015B000448D66817781892D982D50E00E9491128B
:1015C000772071F4F801828D8150828F8085882385
:1015D000A1F0C80108960E942A0D813071F40BC059
:1015E000F801F782E6828189882339F0C6010E94DA
:1015F0002A0D882311F00E9427090F900FBE81E069
:101600004AC08C819D81892B19F40F900FBE42C076
:10161000222319F4C7010E94DD0C0F900FBE0E9417
:10162000810C0FB6F8940F92F801858D8F3F09F465
:10163000158EF801868D8F3F09F4168E0F900FBE20
:10164000C701B5010E94E80C8823F9F40FB6F8949D
:101650000F92F801828D0F900FBE882381F46C8168
:101660007D81C6010E94920EC8010E94520A0E940A
:10167000BE0E882309F07ECF0E9427097BCFC801C8
:101680000E94520A0E94BE0E75CFC8010E94520AE3
:101690000E94BE0E80E00F900F900F900F900F9061
:1016A000CF91DF911F910F91FF90EF90DF90CF903E
:1016B000BF90AF909F908F907F9008957F928F9270
:1016C0009F92AF92BF92CF92DF92EF92FF920F93D1
:1016D0001F93DF93CF9300D000D00F92CDB7DEB72A
:1016E0008C016B015D834C83722E48E0E42EF12C5B
:1016F000E80EF91E20E05E010894A11CB11C34E044
:10170000832E912C8C0E9D1E01C021E00FB6F89403
:101710000F92F801928D838D9817A8F4C801B60135
:10172000472D0E94E909F8018189882341F0C80109
:1017300041960E942A0D813011F40E9427090F90D2
:101740000FBE81E04CC08C819D81892B19F40F90D4
:101750000FBE44C0222319F4C5010E94DD0C0F9076
:101760000FBE0E94810C0FB6F8940F92F801858D80
:101770008F3F09F4158EF801868D8F3F09F4168E80
:101780000F900FBEC501B4010E94E80C882309F533
:101790000FB6F8940F92F801928D0F900FBEF801DA
:1017A000838D981781F46C817D81C7010E94920E10
:1017B000C8010E94520A0E94BE0E882309F0A5CFDC
:1017C0000E942709A2CFC8010E94520A0E94BE0EA1
:1017D0009CCFC8010E94520A0E94BE0E80E00F906A
:1017E0000F900F900F900F90CF91DF911F910F915D
:1017F000FF90EF90DF90CF90BF90AF909F908F9031
:101800007F900895AF92BF92CF92DF92EF92FF92B6
:101810000F931F93CF93DF93B82EA62E882309F43E
:1018200042C08FE190E00E948A07EC010097D9F155
:10183000EB2CFF24CA2CDD24CE9C8001CF9C100D04
:10184000DE9C100D1124C80101960E948A079C019C
:1018500099838883009721F1080F191F1B830A833E
:101860001A8E9D838C830894E108F108EC9CC001DA
:10187000ED9C900DFC9C900D1124280F391F3F8387
:101880002E83BB8EAC8E8FEF8D8F8E8FCE01089600
:101890000E94B107CE0141960E94B1079E0105C08A
:1018A000CE010E947A0720E030E0C901DF91CF919C
:1018B0001F910F91FF90EF90DF90CF90BF90AF906E
:1018C00008951F93162F60E00E94020CFC01009700
:1018D00009F0128FCF011F910895FC018285938535
:1018E0008E53954059F48489958925E08C3292076E
:1018F00029F020E0892B19F421E001C020E0822F9B
:1019000008958091EA048F5F8093EA0408950FB6EA
:10191000F8940F922091E8043091E9040F900FBEE3
:10192000C90108952091E8043091E904C90108959E
:101930008091ED0408958091EA04882351F081E0BC
:101940008093E60408958091EB0481508093EB042A
:1019500001C099E0E091EB04E99FF0011124EE5001
:10196000FB4F8081882379F39091EB0489E0989F65
:10197000D0011124AE50BB4F1196ED91FC911297FE
:101980000280F381E02D1296FC93EE931197CD0126
:101990000396E817F90731F48281938112969C939C
:1019A0008E9311971196ED91FC91129786819781F4
:1019B0009093E5048093E4040895FC018091E7048A
:1019C00080838091E8049091E90492838183089553
:1019D000FC01DB010FB6F8940F924D915C911197C9
:1019E0008FEF4F3F580761F19091E704808198177E
:1019F00049F02091E8043091E9048181928128170F
:101A0000390700F58091E8049091E9042181328141
:101A1000821B930B84179507A8F48091E80490919A
:101A2000E904281B390B240F351F2D933C9380911B
:101A3000E70480838091E8049091E9049283818394
:101A400080E001C081E00F900FBE089581E0809397
:101A5000E60408950F931F93CF93DF93FC01058055
:101A6000F681E02D06811781E8012C96CE010E94B7
:101A700023088091EA048823A9F4E8012296CE0184
:101A80000E942308D80156969C918091EB048917F7
:101A900010F49093EB0489E0989FC00111248E50BC
:101AA0009B4F02C08CE295E0BE010E94C507E09109
:101AB000E404F091E50420E0D80156969C918689D3
:101AC000981708F021E0822FDF91CF911F910F919D
:101AD0000895FF920F931F93CF93DF938091EA04B1
:101AE000882309F08FC08091E8049091E904019661
:101AF0009093E9048093E8048091E8049091E904CC
:101B0000892B79F5209128053091290580912A05A6
:101B100090912B05909329058093280530932B05F0
:101B200020932A058091E7048F5F8093E704E0917A
:101B30002805F09129058081882319F48FEF9FEF04
:101B40000CC0E0912805F09129050580F681E02D73
:101B50000680F781E02D82819381909378008093B5
:101B600077002091E8043091E9048091770090910A
:101B700078002817390708F44AC089E0F82EE09168
:101B80002805F09129058081882339F48FEF9FEF94
:101B900090937800809377003AC0E0912805F09107
:101BA00029050580F681E02DC681D7812A813B81F8
:101BB0008091E8049091E9048217930728F4309308
:101BC00078002093770023C08E010E5F1F4FC8015D
:101BD0000E9423088C899D89892B21F0CE010C96C7
:101BE0000E9423089E898091EB04891710F490933A
:101BF000EB049F9DC00111248E509B4FB8010E94A1
:101C0000C507BDCF8091EC048F5F8093EC04DF911A
:101C1000CF911F910F91FF900895DF92EF92FF9265
:101C20000F931F93CF93DF93EC018A859B858E538F
:101C3000954091F58C899D8925E08C32920761F160
:101C4000892B51F533C0DE88E091E404F091E5047E
:101C5000068992E0E92EF12CEC0EFD1EC7010E94D0
:101C600023086E898091EB04861710F46093EB04CF
:101C700010E0D01608F011E089E0689FC00111243F
:101C80008E509B4FB7010E94C50707C02C968CE26F
:101C900095E0BE010E94C50710E0812FDF91CF9132
:101CA0001F910F91FF90EF90DF9008958091EA04CB
:101CB000882349F2EBCFCF93DF93EC01E091E4046A
:101CC000F091E504938382838091E8049091E90484
:101CD000C817D90768F480912A0590912B05609167
:101CE000E4047091E5046E5F7F4F0E94EE0717C019
:101CF00080912805909129056091E4047091E50494
:101D00006E5F7F4F0E94EE07809177009091780080
:101D1000C817D90720F4D0937800C0937700DF91DB
:101D2000CF910895CF93DF93EB016091E40470911C
:101D3000E504645F7F4F0E94EE078091E404909178
:101D4000E50402960E9423088FEFCF3FD80759F48D
:101D50006091E4047091E5046E5F7F4F8EE395E03F
:101D60000E94C50708C08091E8049091E9048C0F97
:101D70009D1F0E945B0EDF91CF910895CF92DF925D
:101D8000FF920F931F93DF93CF930F92CDB7DEB7E0
:101D90000FB6F8940F928091EA0481508093EA0480
:101DA0008091EA04882309F058C08091ED048823CB
:101DB00009F453C0198229E0F22E2DC0E0913105BB
:101DC000F0913205C680D780C6010C960E94230888
:101DD00086010E5F1F4FC8010E942308D601569648
:101DE0009C918091EB04891710F49093EB049F9DD4
:101DF000C00111248E509B4FB8010E94C507E0918D
:101E0000E404F091E504D60156969C9186899817D2
:101E100010F0B1E0B98380912C05882379F6809188
:101E2000EC04882341F40CC00E94690D8091EC04FD
:101E300081508093EC048091EC048823A9F707C0BB
:101E4000E981E13021F08091E604813031F4109293
:101E5000E6040E94270981E001C080E00F900FBED8
:101E60000F90CF91DF911F910F91FF90DF90CF9056
:101E700008950F931F93CF93DF93EC01009709F41C
:101E80003CC08091E4049091E504C817D907A9F1FA
:101E90000FB6F8940F928A859B858E539540F1F486
:101EA0008C899D8925E08C329207C1F0892BB1F491
:101EB00018C09093EB0489E0989FC00111248E50C4
:101EC0009B4FB8010E94C507E091E404F091E5043E
:101ED0009E898689981710F00E9427090F900FBEDF
:101EE0000CC08E010E5F1F4FC8010E9423089E89FF
:101EF0008091EB048917E8F2DECFDF91CF911F913B
:101F00000F910895EF92FF920F931F93CF93DF935A
:101F10008C010FB6F8940F928091E4049091E5043F
:101F20000817190719F400E010E003C001151105A6
:101F300029F4C091E404D091E50401C0E80132E045
:101F4000E32EF12CEC0EFD1EC7010E9423088C89A4
:101F50009D89892B21F0CE010C960E9423088EE3E7
:101F600095E0B7010E94C5070F900FBE012BA1F4A9
:101F70008091EE04882319F00E9427090DC09091EA
:101F80003E058091ED04981729F41092E504109213
:101F9000E40402C00E949B0CDF91CF911F910F912E
:101FA000FF90EF9008950F931F93CF93DF93EC0171
:101FB0000097C9F08091EA048F5F8093EA04009152
:101FC000E8041091E9048091E4049091E5040296FC
:101FD0000E942308CE01800F911F0E945B0E0E9479
:101FE000BE0E882311F40E942709DF91CF911F9123
:101FF0000F910895CF93DF93FC01EB018091EA04E8
:102000008F5F8093EA0420813181C20FD31F8091BA
:10201000E8049091E9048217930728F4C217D307C4
:1020200028F020E00CC0C217D30740F08091E804EC
:102030009091E90420E08C179D0708F421E0D183FA
:10204000C083222351F08091E4049091E50402962C
:102050000E942308CE010E945B0E0E94BE0E8823C0
:1020600011F40E942709DF91CF910895EF92FF921A
:102070000F931F93CF93DF938C010FB6F8940F92B9
:102080008091E4049091E5040817190719F400E021
:1020900010E003C00115110529F4C091E404D091AA
:1020A000E50401C0E80142E0E42EF12CEC0EFD1E37
:1020B000C7010E9423088C899D89892B21F0CE01BC
:1020C0000C960E94230885E395E0B7010E94C5079E
:1020D0008091EF048F5F8093EF048091F0048F5F15
:1020E0008093F0040F900FBE8091EE04882321F0BE
:1020F000012B11F40E942709DF91CF911F910F91BD
:10210000FF90EF900895F8941092EE040E94C80892
:1021100008950F931F938091EF048823E1F380913A
:10212000EA048F5F8093EA04109135050E94BE0E89
:10213000112389F30FB6F8940F92E0913A05F091CC
:102140003B0506811781C80102960E9423088091F1
:10215000ED0481508093ED048091EF0481508093D1
:10216000EF040F900FBEF8018789908D0E947A07C7
:10217000C8010E947A07CFCF2F923F925F926F9251
:102180007F928F929F92AF92BF92CF92DF92EF9207
:10219000FF920F931F93DF93CF9300D000D0CDB762
:1021A000DEB79A8389834B015A011901502E3701FA
:1021B00081E290E00E948A078B839C838B819C81C3
:1021C000892B89F0C114D10421F4C5010E948A072A
:1021D0006C01EB81FC81D08EC78AC114D10429F433
:1021E000CF010E947A078FEFDAC0C60165EA70E07E
:1021F000A5010E949A120894A108B108EB81FC8104
:10220000E788F08CEA0CFB1CCF014996B40148E04A
:1022100050E00E94A112EB81FC8110A2052DF3E099
:10222000F51508F403E0EB81FC81068B62E0C62E15
:10223000D12CCE0EDF1EC6010E94C1078B819C816E
:102240000C960E94C1078B819C81FC01918780873D
:1022500084E090E0801B910995878487F38BE28B63
:10226000C70169817A81A1010E944B08EB81FC8141
:10227000918380836114710421F0CF01F301918374
:1022800080830FB6F8940F928091ED048F5F809356
:10229000ED048091E4049091E504892BE1F5EB8154
:1022A000FC81F093E504E093E4048091ED04813037
:1022B00009F042C082EF94E00E94B1078BEF94E0F6
:1022C0000E94B10784E095E00E94B1078DE095E09F
:1022D0000E94B10756E1E52E55E0F52EC7010E9498
:1022E000B1070FE115E0C8010E94B1078CE295E04B
:1022F0000E94B10785E395E00E94B1078EE395E067
:102300000E94B107F0922905E092280510932B0551
:1023100000932A0511C08091EE04882369F4E091AE
:10232000E404F091E5048689581630F08B819C8195
:102330009093E5048093E404EB81FC81968980917D
:10234000F104891710F49093F1048091F0048F5FE9
:102350008093F004EB81FC8196898091EB048917CE
:1023600010F49093EB04EB81FC81868929E0829F35
:10237000C00111248E509B4FB6010E94C5070F90DB
:102380000FBE8091EE04882349F0E091E404F091BF
:10239000E5048689851510F40E94270981E00F90D5
:1023A0000F900F900F90CF91DF911F910F91FF90A1
:1023B000EF90DF90CF90BF90AF909F908F907F90E5
:1023C0006F905F903F902F900895AF92BF92CF9201
:1023D000DF92EF92FF920F9389E890E160E670E060
:1023E0004AEF50E020E030E000E0EE24FF24CC246F
:1023F000DD24AA24BB240E94BC10813049F4F89447
:102400008093EE041092E9041092E8040E9493086D
:102410000F91FF90EF90DF90CF90BF90AF90089515
:10242000AF92BF92CF92DF92EF92FF920F9383E031
:1024300060E041E00E940D0383E061E041E00E9422
:102440000D0383E062E041E00E940D0382E692E129
:1024500065E670E044E650E020E030E000E0EE2485
:10246000FF24CC24DD24AA24BB240E94BC1089E5CF
:1024700092E16BE670E044E650E020E030E001E0FD
:102480000E94BC1080E592E161E770E044E650E014
:1024900020E030E002E00E94BC100E94E511FFCF76
:1024A00083E062E00E94F30388EB9BE00E94D30F7D
:1024B000F7CF83E061E00E94F30380ED97E00E9494
:1024C000D30FF7CF83E060E00E94F30380ED97E045
:1024D0000E94D30FF7CF90914705E92FF0E0E7581E
:1024E000FF4F80819F5F909347050E940205809176
:1024F00047058A3081F710924705EDCF8091480556
:102500008F5F8093480581500E9447048091480561
:102510008A3011F41092480588EE93E00E94D30FA0
:10252000EDCFFB01DC0102C001900D924150504003
:10253000D8F70895DC0101C06D9341505040E0F799
:102540000895FB01DC014150504048F001900D928C
:102550000020C9F701C01D9241505040E0F7089596
:10256000FB019F01E8944230C4F04532B4F44A3094
:1025700029F497FB1EF4909581959F4F642F772740
:102580000E94E112805D8A330CF0895D8193CB015A
:102590000097A1F716F45DE251931082C9010C94E3
:1025A000D112DC01FC01672F71917723E1F732979B
:1025B00004C07C916D9370836291AE17BF07C8F31E
:1025C0000895AA1BBB1B51E107C0AA1FBB1FA6177A
:1025D000B70710F0A61BB70B881F991F5A95A9F7CC
:0E25E00080959095BC01CD010895F894FFCF31
:1025EE0049444C45004C45445F31004C45445F32F4
:1025FE00004C45445F3300FFFF77656C636F6D657C
:10260E00000000000000000000000000004849002B
:10261E0000000000000000000000000000000000AC
:02262E000000AA
:00000001FF
